:020000040800F2
:100000003807002001010008BB2600086F24000803
:10001000B9260008E507000851310008000000007B
:10002000000000000000000000000000952700080C
:100030001F08000800000000DD260008972C0008BB
:100040001B0100081B0100081B0100081B01000820
:100050001B0100081B0100081B0100081B01000810
:100060001B0100081B0100081B010008E90700082C
:100070001B0100081B0100081B0100081B010008F0
:100080001B0100081B010008A90600081B0100084D
:100090001B0100081B0100081B0100081B010008D0
:1000A0001B0100081B0100081B0100081B010008C0
:1000B000692D00081B0100081B0100081B01000836
:1000C0001B0100081B0100081B0100081B010008A0
:1000D0001B010008453100081B0100081B01000836
:1000E0001B0100081B0100081B010008DFF80CD0F1
:1000F00000F0C8FA00480047213500083807002002
:100100000648804706480047FEE7FEE7FEE7FEE7B1
:10011000FEE7FEE7FEE7FEE7FEE7FEE7212D00082B
:10012000ED000008202A04DB203A21FA02F0002129
:10013000704721FA02F3D040C2F1200291400843F7
:100140001946704740EA01039B0703D009E008C93C
:10015000121F08C0042AFAD203E011F8013B00F88C
:10016000013B521EF9D27047D2B201E000F8012BD8
:10017000491EFBD270470022F6E710B513460A4627
:1001800004461946FFF7F0FF204610BD2DE9FE4F4B
:10019000804681EA0300C00F0C46009021F0004128
:1001A00023F00045B8EB0200A94105D240462146A4
:1001B00090461C460B46024623F00040104347D0B1
:1001C000270DC7F30A00C3F30A510290401A0190A9
:1001D00040286BDAC3F3130040F4801B009892466A
:1001E00020B10023D2EB030A63EB0B0B01985946B5
:1001F000C0F14002504600F090F906460D465046C8
:100200005946019A00F098F910EB0800614100246A
:1002100087EA115284EAE7731A4340D0009A62B326
:10022000019A012A4FEA075215DC001B61EB02011B
:100230004FF0004202EA0752CDE90042001C41F5AE
:10024000801132462B4600F0CFF903B0BDE8F08FA5
:1002500040462146F9E7001B61EB0201001C41F515
:10026000801300185B412018A2F5001747EB03012B
:1002700040EAD570B6196D4111E06D084FEA3606B7
:1002800045EAC0754FEA0752001B61EB0201001CF2
:1002900041F5801149084FEA3000001951413246BA
:1002A0002B4603B0BDE8F04F00F08FB90098012253
:1002B00040000023D0EB020263EBE073009821467C
:1002C0004FEAE074B8EB000061EB0401E9E783F06A
:1002D00000435BE781F0004158E72DE9FE4F81EADA
:1002E000030404F0004421F0004100944FF0000B9F
:1002F00023F0004350EA01045ED052EA03045BD0CD
:10030000C3F30A54C1F30A552C44A4F2F334019404
:10031000A0FB0254C1F3130141F48011C3F3130392
:1003200043F4801301FB024400FB034E840A970A46
:1003300044EA815447EA8357A4FB076802958D0A73
:1003400005FB07854FEA932C04FB0C542705029DFF
:100350004FEA065847EA1637B5EB08056EEB070C6F
:10036000870E920E47EA811742EA8312A7FB020129
:10037000B6EB0B0164EB00042B0D43EA0C335E1863
:1003800044EB1C50DA465146E7FB0201C5F3130467
:100390004FEA0B3343EA14534FEA0432019C43EA19
:1003A0000603A4F10C040294009CCDE900B400F013
:1003B0001BF903B0BDE8F08F00200146F9E72DE9F5
:1003C000F04D81EA030404F0004B21F0004514468F
:1003D0004FF0000A23F0004150EA050220D054EA11
:1003E00001021DD0C5F30A570246C5F31303C1F33A
:1003F0001300C1F30A5640F4801543F48013A7EBB1
:100400000608101BD64608F2FD3873EB050002D330
:1004100008F1010801E092185B41B8F1000F03DA1E
:1004200000200146BDE8F08D00204FF48011064603
:1004300084460EE0171B73EB050705D3121B63EB15
:10044000050306434CEA010C49084FEA30009218B4
:100450005B4150EA0107EDD152EA030012D082EA73
:10046000040083EA0501084305D0101BAB4106D206
:100470000122002306E000224FF0004302E06FF06B
:10048000010253101AEB06004CEB085110EB0A0066
:1004900041EB0B01BDE8F04D00F097B80EB540F20E
:1004A000334102910021CDE900110A460B4600F0CC
:1004B0009BF803B000BD01F0004330B421F00041CF
:1004C00050EA010206D00A0DA2F56072C1F31301D1
:1004D000002A02DC30BC00207047440F44EAC1040B
:1004E000C100E01830BC00EBC25000F037B830B5A6
:1004F0000B46014600202022012409E021FA02F5E2
:100500009D4205D303FA02F5491B04FA02F528447B
:10051000151EA2F10102F1DC30BD202A04DB203AD5
:1005200000FA02F1002070479140C2F1200320FA46
:1005300003F3194390407047202A06DBCB17203A7B
:1005400041FA02F043EAE07306E041FA02F3D040D8
:10055000C2F1200291400843194670470029A8BF04
:100560007047401C490008BF20F00100704710B4DC
:10057000B0FA80FC00FA0CF050EA010404BF10BC91
:10058000704749B1CCF1200421FA04F411FA0CF1BE
:1005900018BF012121430843A3EB0C01CB1D4FEAF7
:1005A00000614FEA102042BF002010BC704700EBF2
:1005B000C35010440029A4BF10BC7047401C490020
:1005C00008BF20F0010010BC704710B5141E73F175
:1005D000000408DA401C41F1000192185B411A4303
:1005E00001D120F0010010BD2DE9F04D92469B464F
:1005F00011B1B1FA81F202E0B0FA80F220329046F5
:10060000FFF78BFF04460F4640EA0A0041EA0B0160
:1006100053465A46084313D0114653EA010019D0F5
:10062000C8F140025046FFF77DFD05460E46504694
:1006300059464246FFF771FF084305D0012004E008
:1006400020463946BDE8F08D0020054346EAE076B5
:100650002C4337430A986305E40AA0EB0800002204
:10066000FD0A44EA47540A3002D500200146E9E772
:10067000010510196941DDE9084500196941BDE826
:10068000F04DA2E7064C074D06E0E06840F001039C
:1006900094E8070098471034AC42F6D3FFF72AFDE0
:1006A000C0370008E0370008014800F03CB90000FE
:1006B0003800002070B5044600688168C943C90746
:1006C0001CD1816821F00101816000F0CDFD05465B
:1006D0000FE000BF00F0C8FD401B022809D9A06A46
:1006E00040F01000A062E06A40F00100E0620120EA
:1006F00070BD20688068C043C007EBD0002070BD8B
:1007000010B50146406A826A12F0500F05D0006AA7
:10071000026BBDE8104008461047816A41F4007141
:10072000816201688968C1F3424107290CD1C1681F
:1007300051B9816A21F480718162816AC90403D44C
:10074000816A41F00101816200F0EAF810BD10B544
:10075000406A816A41F040018162C16A41F004014E
:10076000C16200F0DFF810BD10B5406A00F0D9F8A2
:1007700010BD0000F8B500260446009600688168A8
:10078000C943C90728D0816841F00101816013483D
:1007900013490068B0FBF1F000E0401E0090002813
:1007A000FBD100F061FD054611E000BF00F05CFDEB
:1007B000401B02280BD9A06A40F01000A062E06A3A
:1007C00040F00100E06284F824600120F8BD206858
:1007D0008068C043C007E9D10020F8BD3000002088
:1007E00040420F00FEE70000014800F02BBB000074
:1007F000F402002030B590F840500124AC40C56BA5
:100800006C60046863604368102B036803D09960D0
:100810000068C26030BD9A600068C16030BD70473A
:1008200070470000F8B50024009490F82420254675
:10083000012A12D0012280F824204A681F23072AA7
:100840000DD20668776B521E02EB820293409F43E3
:100850000B6893401F43776319E00220F8BD0668D8
:100860000D2A0AD2376BD21F02EB820293409F43BC
:100870000B6893401F43376309E0F76A0D3A02EBB8
:10088000820293409F430B6893401F43F7620A68BC
:10089000072306680A2A0AD3F7680A3A02EB4202DB
:1008A00093409F438B6893401F43F76008E037698C
:1008B00002EB420293409F438B6893401F43376192
:1008C0000A68102A01D0112A20D1124B02689A42DC
:1008D00017D193681B0219D4936843F40003936003
:1008E0000968102912D10C490C4A0968B1FBF2F1D0
:1008F00001EB8101490000E0491E00910029FBD174
:1009000004E0816A41F020018162012480F82450D2
:100910002046F8BD002401403000002040420F0076
:1009200070477047704710B50446006841688906F3
:1009300026D50168890723D5A16AC90603D4A16A0F
:1009400041F40071A1628168C1F34241072910D1CD
:10095000E16871B9416821F020014160A06A20F48A
:100960008070A062A06AC00403D4A06A40F00100B5
:10097000A0622046FFF7D4FF21686FF012000860E4
:100980002068416809062ED5016849072BD5A16A60
:10099000C90603D4A16A41F40051A1628168C1F380
:1009A0000231072909D04168490515D48168C1F38E
:1009B0004241072910D1E16871B9416821F08001F5
:1009C0004160A06A20F48050A062A06AC00503D4F0
:1009D000A06A40F00100A0622046FFF721FF2168D5
:1009E0006FF00C0008602068416849060DD500686A
:1009F000C0070AD0A06A40F48030A062204600F010
:100A000093F821686FF00100086010BD2DE9F041F6
:100A10004FF0000704003D467ED0A06A002628B9AA
:100A2000E66284F82460204600F080F82046FFF754
:100A300041FEA16A01F01001014304D0A06A40F018
:100A40001000A06268E0A16A21F4885141F002011F
:100A5000A1626268E169E3680A4347EA43010A4325
:100A6000A1684FF48077B94208D0012906D000214F
:100A7000D4F814C0BCF1010F02D00AE03946F7E700
:100A8000F3B1A36A43F02003A362E36A43F00103D6
:100A9000E3622368D3F804C02CF4694C4CEA010CDF
:100AA000C3F804C023689968DFF870C001EA0C013C
:100AB00011439960A168B9420BD0012909D00CE01B
:100AC000DFF85CC0A3690CEB43330B4343F40061D4
:100AD000DFE7218A0D05A5F580152168CB6A23F48F
:100AE00070032B43CB62216889680E4B19409142F9
:100AF00008D1E662A16A21F0020141F00101A16280
:100B0000BDE8F081A06A20F0020040F01000A06271
:100B1000E06A40F00100E0620120F1E7FDF7E1FF4B
:100B200000E0FFFFFE0E1FFF7047000030B50546D6
:100B300000681C4985B0884231D11B48816941F465
:100B4000007181618069694600F40070049007209B
:100B5000009003200190154800F09AFA154C1448B3
:100B60008021206000206060C4E902014900216109
:100B7000890061612021C4E90610204600F00CFACA
:100B800018B177210CA002F0E4FA2C620022114681
:100B90001220656200F03CFC122000F02EFC05B033
:100BA00030BD000000240140001002400008014058
:100BB00008000240F40200202E2E2F5372632F7380
:100BC000746D3332663178785F68616C5F6D737015
:100BD0002E6300002DE9F047894604463B49006832
:100BE0003B4F0E1D9046884201D0B84207D1306875
:100BF00010F4702F03D001252846BDE8F08794F843
:100C0000240001280CD0012084F824002046FFF79E
:100C1000B1FD05004FF0000004D084F82400EBE79C
:100C20000220EAE7A16A40F60162914341F4807133
:100C3000A1622168B94218D1326812F4702F14D021
:100C4000A16A41F48011A1623168490505D5A16A04
:100C500021F4005141F48051A162A16AC9040AD56E
:100C6000E16A21F00601E16206E0A26A22F4801244
:100C7000A2624968E9E7E06284F82400216A154825
:100C80008862216A1448C862216A1448086321688E
:100C90006FF0020008602068816841F48071816013
:100CA000216843464A464C31206A00F0A7F9206883
:100CB0008168C1F342410729816803D041F4801162
:100CC000816099E741F4A001FAE7000000240140A7
:100CD0000028014001070008690700084F070008C5
:100CE00070B5044690F8240001280DD0012084F846
:100CF00024002046FFF73EFD02004FF0000005D023
:100D000084F82400104670BD022070BDA16A40F630
:100D10000163994341F48071A162224D2368224905
:100D2000AB4218D10E6816F4702F14D0A66A46F4A0
:100D30008016A6620E68760505D5A66A26F40056CA
:100D400046F48056A662A66AF6040AD5E66A26F03C
:100D50000606E66206E0A66A26F48016A6625E68CB
:100D6000E9E7E06284F824006FF002001860206870
:100D7000436843F02003436020688368C3F3424321
:100D8000072B05D1A84208D1096811F4702F04D0AF
:100D9000816841F480118160B4E7816841F4A00169
:100DA000F9E70000002801400424014010B590F844
:100DB00021100024022903D00421816301243DE095
:100DC00001680A6822F00E020A6001680A6822F0CF
:100DD00001020A601A4A0168914201D1012121E011
:100DE000174A1432914201D110211BE0144A2832D3
:100DF000914201D1891515E0114A3C32914201D14D
:100E000089140FE00E4A5032914202D14FF48031E2
:100E100008E00B4A6432914202D14FF4801101E0A4
:100E20004FF08071064A083A5160012180F8211084
:100E3000002180F82010416B01B18847204610BD89
:100E4000080002402DE9F05FC16B0C6801680B6877
:100E5000D0F840C0042202FA0CF2494DDFF824A178
:100E6000494E4A4FDFF828B1DFF828E122422CD062
:100E70005A072AD50A68920603D40A6822F00402A7
:100E80000A600168A94201D1042219E0514501D14B
:100E9000402215E0B14202D14FF4806210E0B94225
:100EA00002D14FF480420BE0594502D14FF4802229
:100EB00006E0714502D14FF4800201E04FF08062FC
:100EC0002F4908394A60C16A3BE04FF0020808FA2E
:100ED0000CF818EA040F4FF000094FF0010235D06A
:100EE0005FEA837832D50B689B0605D40B6823F044
:100EF0000A030B6080F821200168A94201D1022277
:100F000019E0514501D1202215E0B14202D14FF440
:100F1000007210E0B94202D14FF400520BE0594583
:100F200002D14FF4003206E0714502D14FF40012B5
:100F300001E04FF00072124908394A6080F82090B1
:100F4000816A00291AD0BDE8F05F0847082505FA34
:100F50000CF5254212D01B0710D50B6823F00E03A9
:100F60000B6090F84010C36B02FA01F15960826384
:100F700080F8212080F82090016BE2E7BDE8F09F27
:100F8000080002401C0002403000024044000240C1
:100F9000580002406C00024030B548B308C81549FB
:100FA00014221944B1FBF2F18900C1631249816333
:100FB000022141771A6843F6F0718A43D0E90014A0
:100FC0002143D0E902452C4321430469214344696C
:100FD00021438469214311431960002141628162E8
:100FE000C16201634163012242770177084630BD47
:100FF000012030BDF8FFFDBF0000024070B504467F
:1010000090F82000002501280CD0012084F8200051
:1010100094F821600020012E06D084F820000225DB
:10102000284670BD022070BD022684F82160A063AE
:101030002068066826F0010606602046FFF7DAFB06
:10104000E06A00282068016802D041F00E0106E045
:1010500021F0040101602068016841F00A0101608B
:101060002068016841F001010160D9E770B50446CC
:1010700000F0FAF80546601C02D0044800780444E9
:1010800000F0F2F8401BA042FAD370BD240000200B
:101090002DE9F84FDFF890A100220AF1040B144665
:1010A00001274FF00F090BF1040E00BF0B6807FA80
:1010B00004F52B40AB4274D1DFF870C14E68A6EB4B
:1010C0000C0866452BD00DDC032E34D005DC36B37E
:1010D000012E19D0022E2FD11BE0112E16D0122E68
:1010E0002AD119E0B8F5881F19D006DCB8F5803F81
:1010F00015D0B8F5801F1FD111E0B8F5001F0ED034
:10110000B8F5041F18D10AE0CA6815E0CA68121DB4
:1011100012E0CA6808320FE0CA680C320CE08A6834
:101120002AB1012A4FF0080203D0456104E00422ED
:1011300002E0056100E00022FF2B01D8064601E035
:1011400000F104064FEA840501D9A5F12005D6F87F
:1011500000C009FA05F82CEA080C02FA05F54CEA79
:10116000050CC6F800C04D68ED0057D5304DAE698E
:1011700046F00106AE61AD6924F0030605F00105F5
:1011800000952C4D06EB050CDCF80850A6074FEA3D
:10119000167809FA08F6B543274EB04202D1002668
:1011A00010E03BE0254EB04201D101260AE0244E7A
:1011B000B04201D1022605E0224EB04201D1032601
:1011C00000E0042606FA08F62E43CCF808604D68C5
:1011D000DAF80060ED03554601D51E4300E09E435A
:1011E0002E604D68DBF80060AD035D4601D51E43FF
:1011F00000E09E432E604D68DEF80060ED0275460B
:1012000001D51E4300E09E432E604D68AD020E4D99
:101210002E6801D51E4300E09E432E60641C102CF6
:10122000FFF444AFBDE8F88F000401400000111046
:10123000001002400000014000080140000C014085
:1012400000100140001401400C0401408068084077
:1012500000D001207047C2684A40C26070470AB19E
:10126000016170470904FBE701488068704700008E
:101270002400002002488168027811448160704790
:1012800024000020074810B5016841F010010160FA
:10129000032000F0DDF8002000F006F800F024F84C
:1012A000002010BD0020024070B50D4D04464FF4E3
:1012B0007A712878B1FBF0F00A490968B1FBF0F0C7
:1012C00000F0F3FD48B9102C07D200222146501E31
:1012D00000F09EF800206C6070BD012070BD000021
:1012E0002400002030000020214808B5816941F029
:1012F00001018161816901F001010091C16941F041
:101300008051C161C06900F080500090032000F05E
:101310009FF8002211466FF00B0000F079F80022D0
:1013200011466FF00A0000F073F8002211466FF0CA
:10133000090000F06DF800221146501F00F068F817
:1013400000221146101F00F063F800221146901E83
:1013500000F05EF800221146501E00F059F80548D2
:10136000416821F0E06141F00071416008BD00007A
:1013700000100240000001402DE9F04116460F46E2
:10138000040004D094F83900002518B107E00120CA
:10139000BDE8F08184F83850204600F0D3FF2420C7
:1013A00084F839002068C16821F40051C1602046EA
:1013B00001F0ACFD2068016921F4904101612068D1
:1013C000416921F02A0141612068016921F00F0182
:1013D000394301612068C16821F400613143C16073
:1013E0002068C16841F40051C160E563202084F8A1
:1013F000390084F83A000020CAE700F01F020121FA
:1014000091404009800000F1E020C0F800117047D1
:10141000F0B40E4B1B680C46C3F30223C3F107055F
:10142000042D00D90425191D072901D2002300E04D
:10143000DB1E012606FA05F1491E214099409E4017
:10144000761E16403143F0BC01F038B90CED00E0D7
:10145000064900F0070208684FF6FF03184040EA0B
:101460000220034A10430860704700000CED00E0C2
:101470000000FA052DE9F84305460078354CC00711
:1014800054D0E0690026C00008D4E06940F08050E4
:10149000E061E069012600F0805000902E4801686C
:1014A000C90512D40168804641F480710160FFF7DC
:1014B000DBFE074605E000BFFFF7D6FEC01B642831
:1014C00023D8D8F80000C005F6D5206A10F4407083
:1014D00021D0A98801F4407181421CD0206A1F49A3
:1014E000012220F440700A6000220A602062C007D6
:1014F00011D0FFF7B9FE074641F2883808E000BF77
:10150000FFF7B2FEC11B414502D90320BDE8F883B5
:10151000206A8007F4D5206A696820F44070084387
:1015200020621EB1E06920F08050E06128788007D9
:1015300005D56068A96820F44040084360602878B9
:10154000C00605D56068E96820F480000843606043
:101550000020DBE7001002400070004040044242DF
:101560002DE9F047DFF83C8105460E46D8F800002B
:1015700000F00700B0420CD2D8F8001021F00701AB
:101580003143C8F80010D8F8000000F00700B0425E
:1015900063D12878444C800705D56068A96820F09D
:1015A000F000084360602878C00745D068680128CB
:1015B00016D02168022816D0890700294DDA616803
:1015C00021F0030101436160FFF74EFE69680746A1
:1015D00041F2883001290FD00229814619D027E035
:1015E00021688903E9E78901E7E700BFFFF73CFECF
:1015F000C11B494501D918E081466068C0F38100EC
:101600000128F3D118E000BFFFF72EFEC11B4945AA
:101610000BD86068C0F381000228F5D10CE000BF50
:10162000FFF722FEC11B494502D90320BDE8F08720
:10163000606810F00C0FF3D1D8F80010404601F0AC
:101640000701B1420BD9016821F007013143016064
:10165000006800F00700B04201D00120E6E72878DA
:10166000400705D56068E96820F4E06008436060E1
:101670002878000706D56068296920F4605040EAA0
:10168000C100606000F03CF86168084AC1F30311D2
:10169000515CC840064908600020FFF705FE0020A5
:1016A000C4E700000020024000100240A8370008F4
:1016B0003000002001480068704700003000002022
:1016C0000448054900684968044AC1F30221515C95
:1016D000C84070473000002000100240B8370008B2
:1016E0000448054900684968044AC1F3C221515CB5
:1016F000C84070473000002000100240B837000892
:1017000012A185B00FC98DE80F0014A0144A00681B
:1017100004905168134801F00C03042B10D0082BDF
:101720000ED1C1F38343C9031DF803000AD55168E4
:1017300004AAC1F34041515C0A4A5043B0FBF1F0A6
:1017400005B0704708494843FAE700000203040562
:10175000060708090A0B0C0D0E0F101001020000FD
:101760000010024000127A0000093D002DE9F84FF8
:1017700004460078B94DC00748D06868C0F38100BE
:10178000012807D06868C0F38100022809D1686881
:10179000C00306D52868800338D5606800286FD05C
:1017A00034E06068B0F5803F0BD010B1B0F5A02FE9
:1017B00011D0286820F480302860286820F4802028
:1017C00002E0286840F480302860606888B1FFF744
:1017D0004BFD064609E0286840F480202860F0E7C9
:1017E000FFF742FD801B642875D828688003F7D571
:1017F0000CE0FFF739FD064605E000BFFFF734FDBA
:10180000801B6428F0D828688003F7D42078944E91
:1018100080074FF001094FF000083BD5686810F0D1
:101820000C0F07D06868C0F38100022809D16868EE
:10183000C00306D42868800714D5206901281FD169
:1018400010E02069B0B1C6F80090FFF70DFD074623
:1018500005E000BFFFF708FDC01B0228C4D82868B8
:101860008007F7D52868616920F0F80040EAC100D8
:1018700028600FE0C6F80080FFF7F6FC074606E098
:10188000E9E000BFFFF7F0FCC01B022823D828685E
:101890008007F7D4207800072CD57248A169D9B108
:1018A000C0F80090FFF7E0FC074604E0FFF7DCFC1F
:1018B000C01B02280FD8686A8007F7D56A484FF422
:1018C000FA510068B0FBF1F0009000BF0098411E93
:1018D0000091FAD20EE080E0C0F80080FFF7C4FC6F
:1018E000074604E0FFF7C0FCC01B022875D8686AF1
:1018F0008007F7D42078400760D5E8690027C0004A
:1019000008D4E86940F08050E861E869012700F0F8
:101910008050009055480168C90513D4016883467A
:1019200041F480710160FFF79FFC824606E000BF32
:10193000FFF79AFCA0EB0A0064284ED8DBF8000001
:10194000C005F5D5E06801280AD008B1052813D0F4
:10195000286A20F001002862286A20F0040002E0D2
:10196000286A40F001002862E06841F2883B98B1A3
:10197000FFF77AFC82460BE0286A40F004002862F8
:10198000EEE700BFFFF770FCA0EB0A0159455AD8FB
:10199000286A8007F6D50CE0FFF766FC824605E072
:1019A000FFF762FCA0EB0A0159454CD8286A800772
:1019B000F6D41FB1E86920F08050E861E06988B38F
:1019C0006968C1F38101022945D00228C6F8608008
:1019D00004D0FFF749FC044638E034E0FFF744FC4C
:1019E000074604E0FFF740FCC01B02282BD82868FC
:1019F0008001F7D4206AB0F5803F05D16868A168FE
:101A000020F4003008436860D4E90801084369689D
:101A100021F4741108436860C6F86090FFF724FC55
:101A2000044606E015E000BFFFF71EFC001B02287D
:101A300009D828688001F7D50BE000BFFFF714FC38
:101A4000001B022802D90320BDE8F88F2868800116
:101A5000F4D40020F8E70120F6E70000001002406F
:101A600000004242800442423000002000700040EA
:101A700090F85100704770B5040005D00025A562AC
:101A800094F8510010B104E0012070BD204600F030
:101A900033F8022084F851002068016821F04001E9
:101AA0000160D4E901010843D4E90312114308435A
:101AB00061690843218B01F400710843E16908431F
:101AC000216A0843A16A084321680860A0690421CB
:101AD00001EA1040616A0843216848602168E06AB1
:101AE00008612068C16921F40061C1616565012058
:101AF00084F85100002070BD10B50068114986B00F
:101B000088421CD11048816941F48051816180690B
:101B10000E4C00F480500490A02000900220019010
:101B20000320039069462046FFF7B2FA00214020C7
:101B3000CDE90001029169462046FFF7A9FA06B0F7
:101B400010BD0000003001400010024000080140BC
:101B50002DE9F84F044690F85000002699461746A4
:101B60000D4601280DD04FF0010B84F850B0FFF75F
:101B70007BFB804694F85100B246012804D002262F
:101B800094E00220BDE8F88F002D7BD0002F79D0A3
:101B9000032084F85100C4F854A02563A786E78683
:101BA000C4F838A0A4F83CA0A4F83EA0C4F844A00F
:101BB000C4F840A0A068B0F5004F04D120680168C7
:101BC00041F48041016020680168490603D401683E
:101BD00041F040010160E068B0F5006F606804D03A
:101BE00030B3E08E012823D03EE010B1E08E012812
:101BF0001AD135F8021B206805E020688168890742
:101C000006D535F8021BC160E08E401EE0860BE071
:101C1000B9F1000F34D0B9F1FF3F05D0FFF724FB35
:101C2000A0EB080149452BD2E08E0028E5D11EE04B
:101C3000216815F8010B087306E0206881688907A0
:101C400006D515F8011B0173E08E401EE0860BE0FF
:101C5000B9F1000F14D0B9F1FF3F05D0FFF704FB35
:101C6000A0EB080149450BD2E08E0028E5D14B4698
:101C7000012202212046CDF8008000F040FD10B185
:101C8000032613E011E042464946204600F027FDB6
:101C900018B101262020606508E0A06818B9206806
:101CA000C16880680090606D00B1012684F851B071
:101CB00084F850A0304665E72DE9F84F044690F8C7
:101CC000500000260A9F9A4693460D464FF00108A1
:101CD00001280ED0012084F85000FFF7C5FA814694
:101CE00094F85100616801280CD0B1F5827F07D1CA
:101CF00002E00220BDE8F88FA16809B9042801D0EC
:101D00000226BDE055B1BBF1000F07D0BAF1000FBC
:101D100004D094F85100012802D004E00126AFE07D
:101D2000052084F8510000206065C4F838B0A4F89C
:101D30003EA0A4F83CA02563A4F836A0A4F834A0E3
:101D40002064606420680168490603D4016841F09A
:101D500040010160E068B0F5006F606804D0E8B34E
:101D6000E08E01283BD06AE010B1E08E01282ED130
:101D7000216835F8020BC860E08E401EE08626E040
:101D8000B8F1000F0DD0E08E58B120688168890746
:101D900007D535F8021BC160E08E401EE0864FF08B
:101DA0000008E08F58B120688168C90707D0C06873
:101DB0002BF8020BE08F401EE0874FF00108781CE3
:101DC00005D0FFF751FAA0EB0900B84246D2E08EE9
:101DD0000028D5D1E08F0028D2D136E0FFE7216876
:101DE00015F8010B0873E08E401EE08627E000BF67
:101DF000B8F1000F0DD0E08E58B1206881688907D6
:101E000007D515F8011B0173E08E401EE0864FF0E8
:101E10000008E08F58B120688168C90707D0C06802
:101E20000BF8010BE08F401EE0874FF00108781C93
:101E300005D0FFF719FAA0EB0900B8420ED2E08EE8
:101E40000028D5D1E08F0028D2D13B4601220221C3
:101E50002046CDF8009000F052FC08B103260FE0B8
:101E60004A463946204600F03AFC18B101262020A7
:101E7000606505E0A06818B92068C16880680090B6
:101E8000012084F85100002084F85000304631E7EA
:101E90004FF0E0210428086903D020F00400086115
:101EA000704740F00400FAE7704710B5401EB0F1EB
:101EB000807F01D3012010BD4FF0E02460610F212D
:101EC000601700F0FBFB0020A061072020610020CC
:101ED00010BD10B5FFF7E8FF10BD7047704730B573
:101EE00090F83C20012A20D0012280F83C200223D7
:101EF00080F83D3003685C6824F070045C6003681F
:101F00005C680D682C435C6003689C6824F0800466
:101F10009C6003689C6849680C439C6080F83D2085
:101F2000002180F83C10084630BD022030BD10B5BD
:101F3000040003D094F83D0010B107E0012010BD6B
:101F4000002084F83C00204600F00CF8022084F8C1
:101F50003D00211D206800F00DFF012084F83D00A8
:101F6000002010BD08B50068B0F1804F12D10A48BA
:101F7000C16941F00101C161C069002200F00100A6
:101F8000009011461C20FFF743FABDE808401C20D2
:101F9000FFF733BA08BD000000100240022180F8AC
:101FA0003D1001680A6842F001020A60012180F8D0
:101FB0003D10002070470168CA6842F00102CA6003
:101FC0000068016841F0010101600020704770B5B0
:101FD000044690F83C00012817D0012584F83C50B5
:101FE000022084F83D002068826822F0770222F403
:101FF0007F4282600868502837D00DDC202859D0F5
:1020000005DC88B3102841D151E0022070BD302892
:1020100053D040283AD13FE060282ED070280BD012
:10202000B0F5805F03D0B0F5005F2FD110E02068DD
:10203000816821F0070115E0CB68D1E90121206812
:1020400000F0CEFE2168886840F0770088601DE0CF
:10205000CB68D1E90121206800F0C2FE20688168C8
:1020600041F48041816011E01EE0CA68496820683F
:1020700000F0C8FE5021206806E0CA684968206860
:1020800000F0D1FE6021206800F0B4FE84F83D50DD
:10209000002084F83C0070BDCA684968206800F0E0
:1020A000B1FE40212068EFE700212068ECE7102115
:1020B0002068E9E720212068E6E730212068E3E78F
:1020C000704770B50446006801694FF00005C943C8
:1020D000890715D4C168C943890711D4E91E016174
:1020E00001202077206880698007204602D0FFF712
:1020F000E7FF04E000F098F8204600F096F8257716
:1021000020680169C943490717D4C168C943490711
:1021100013D46FF0040101610220207720688069E8
:1021200010F4407F204602D0FFF7CAFF04E000F021
:102130007BF8204600F079F8257720680169C943CB
:10214000090716D4C168C943090712D46FF0080102
:102150000161042020772068C0698007204602D0F2
:10216000FFF7AEFF04E000F05FF8204600F05DF8F6
:10217000257720680169C943C90617D4C168C943D6
:10218000C90613D46FF01001016108202077206880
:10219000C06910F4407F204602D0FFF791FF04E0B1
:1021A00000F042F8204600F040F8257720680169E9
:1021B000C943C90708D1C168C943C90704D1891EE9
:1021C0000161204600F032F820680169C943090620
:1021D00009D4C168C943090605D46FF080010161C3
:1021E0002046FFF77AFE20680169C943490609D4F1
:1021F000C168C943490605D46FF04001016120461A
:1022000000F015F820680169C94389060BD4C1683C
:10221000C943890607D46FF0200101612046BDE85B
:102220007040FFF75BBE70BD7047704770477047E6
:102230007047000070B5026804461068D1685369A1
:1022400010F00F0F51D003F0010501F490763543E3
:102250005DD0C20705D0CA0503D5E26B42F001028A
:10226000E263420705D5DA0703D0E26B42F00202CF
:10227000E263820705D5DA0703D0E26B42F004027D
:10228000E263020705D5DA0703D0E26B42F00802E9
:10229000E263E26B002A34D0800604D5880602D5BA
:1022A000204600F0E8FD20684069E16BC0F3801033
:1022B00001F008010143204624D000F0CEFD206843
:1022C000416949061AD5416921F040014161606BBD
:1022D000A0B11B494163606BFEF768FD002810D078
:1022E000606B416BBDE87040084783060FD58B06D5
:1022F0000DD52046BDE8704000F0BDBD2046FFF77B
:1023000097FF70BDFFF794FF0020E06370BD0306E8
:1023100006D50B0604D52046BDE8704000F0AEBEE1
:102320004006F3D54806F1D5D168204621F040019A
:10233000D160202184F8391000F098F870BD0000B9
:102340004B2E000810B50068164986B0884226D189
:102350001548816941F4804181618069134C00F422
:10236000804004904FF40070009002200190032000
:10237000039069462046FEF78BFE20150090002052
:1023800001900120029069462046FEF781FE00225E
:1023900011462520FFF73CF82520FFF72EF806B060
:1023A00010BD00000038014000100240000801404C
:1023B00070472DE9F843044690F839001F46164649
:1023C0000D46202850D1A5B19EB194F838000128BF
:1023D0004AD0012084F838004FF00008C4F83C804F
:1023E000212084F83900FEF73FFFA6848146E68469
:1023F00026E00120BDE8F883E08C401EE084A06860
:102400004B46B0F5805F4FF000024FF08001204650
:10241000009703D000F063FEE8B90DE000F05FFE26
:10242000C8B928882168C0F308004860206908B14D
:102430006D1C05E0AD1C03E0216815F8010B486038
:10244000E08C0028D8D14B4600224021204600973E
:1024500000F045FE08B10320CCE7202084F83900C5
:1024600084F838800020C5E70220C3E77047FEE704
:102470003EB519481749002401608915C0E90214C6
:102480004461032505614FF460214460C161FEF79A
:10249000BDFA00B1FEE7009401240620CDE9014019
:1024A00069460D48FEF7BEF900B1FEE7009402242C
:1024B000694609480194FEF7B5F900B1FEE769469F
:1024C0000548CDE90045FEF7ADF9002800D0FEE74C
:1024D0003EBD000000240140380000202DE9F047F7
:1024E0003F4886B0816941F010018161816901F046
:1024F00010010491816941F020018161816901F03D
:1025000020010491816941F004018161816901F038
:1025100004010491816941F008018161806901220F
:1025200000F00800DFF8BC805503049029464046BF
:10253000FEF795FEDFF8B090012210214846FEF725
:102540008EFEDFF8A8A0012202215046FEF787FE8A
:102550006C11002221464846FEF781FE01229703B6
:1025600039465046FEF77BFE009401240194029404
:10257000694648460394FEF78BFDCDE900540025DB
:102580000226CDE9025669464046FEF781FD10203D
:102590008DE8710069464846FEF77AFDCDE90045B1
:1025A000694650460295FEF773FD8020CDE900058F
:1025B000694602945046FEF76BFDCDE90064CDE913
:1025C000025669465046FEF763FD01AA009782E86D
:1025D000700069465046FEF75BFD06B0BDE8F08727
:1025E000001002400010014000080140000C0140B2
:1025F0000E4810B50C4901604FF482714160002112
:102600008160C1604FF400720161C0E905120822C7
:10261000C0E90721416281620A21C162FFF72BFAFA
:10262000002800D0FEE710BD003001406800002007
:1026300010B5134886B04FF0804101604721002457
:10264000C0E901144FF6FE71C0E903148461FFF77D
:102650006EFC00B1FEE74FF48050009069460848D8
:10266000FFF7B5FC00B1FEE7049404A90448059403
:10267000FFF735FC002800D0FEE706B010BD0000D3
:10268000C00000200B4810B5094901604FF4E1314A
:102690004160002181600C22C160C0E904128161A7
:1026A0000A46C161FEF768FE002800D0FEE710BDB3
:1026B0000038014000010020FEE770470907090EBD
:1026C000002806DA00F00F0000F1E02080F8141D69
:1026D000704700F1E02080F800147047704738B56B
:1026E0000B46009204460022802100F008F80028E2
:1026F00004D0606D40F020006065032038BD2DE9F6
:10270000F0411D4617460E460446DDF8188035E0B8
:10271000681C33D02DB1FEF7A7FDA0EB0800A8423E
:102720002CD32068416821F0E00141606068B0F579
:10273000827F0BD1A068B0F5004F02D0B0F5806F5A
:1027400004D12068016821F040010160A06AB0F561
:10275000005F0AD1206801684DF6FF7211400160E8
:102760002068016841F400510160012084F85100A3
:10277000002084F850000320BDE8F08120688068C4
:1027800036EA000004D00020B842C1D10020F3E7AF
:102790000120F9E7704770B515460E4604460172F0
:1027A00000F0DCF984224D21204600F027F9FF22B9
:1027B0002421204600F022F901224021204600F089
:1027C0001DF93F221121204600F018F9204600F0A3
:1027D00042F932462221204600F010F90F2120460E
:1027E00000F0FDF802460D21204600F007F98D2289
:1027F0000121204600F002F9002084F80A01182186
:10280000204600F0ECF8400703D503206072012059
:1028100070BD6D1E03D0012000F0ADF9EFE7206818
:1028200000F0B5F9204600F099F9002070BD70B5B0
:1028300016460C460546017200F090F987224D219C
:10284000284600F0DBF800222421284600F0D6F8C4
:1028500041224021284600F0D1F8284600F0FBF83C
:10286000F7221121284600F0C9F8224622212846E5
:1028700000F0C4F80E21284600F0B1F802460D2100
:10288000284600F0BBF82221284600F0A8F8A04214
:1028900003D102206872012070BD761EF3D1286832
:1028A00000F075F9284600F059F9002070BD70B5A8
:1028B0000446006800F061F908B304F10A004FF41F
:1028C00080710646FDF757FC1021204600F087F87E
:1028D00002460D21204600F091F8A07990B1132115
:1028E000204600F07CF805462B4632460021204663
:1028F00000F035F884F80A51204600F0ACF894F85E
:102900000A0170BD257AEFE770B51D4613460A46E9
:102910000446002100F042F88B220121204600F0FD
:102920006DF8206800F029F958B11221204600F016
:1029300056F8204600F08FF8204600F0A3F9012059
:1029400070BD6D1E03D0012000F015F9E9E7206885
:1029500000F01DF9204600F001F9002070BD2DE9BE
:10296000F0411E4617460C460546012B14D900219E
:10297000286800F052F92146286800F020F9002468
:1029800004E000F02EF93855641CE4B22868B44223
:10299000F7D3012100F041F9BDE8F0812DE9F041C4
:1029A0001E4617460C460546012B16D900212868FD
:1029B00000F033F944F08001286800F000F90024A9
:1029C00005E0395D286800F0FAF8641CE4B2B4420E
:1029D000F7D30121286800F020F9BDE8F08170B537
:1029E0000446006800F0EBF8206800F0FAF80546AD
:1029F0000121206800F011F9284670BD70B50D4620
:102A0000044616460068002100F007F945F08001F1
:102A1000206800F0D4F83146206800F0D0F8012199
:102A2000206800F0FAF870BD2DE9F0470446DDE9B2
:102A300008891D4616460F46006800F0F8F8277111
:102A40006671A57184F8078084F808902046BDE877
:102A5000F04700F083B8FF221221FFF7CFBF00003C
:102A60002DE9F0411C4615460F468046069E00F0B3
:102A700000F90F2000F07FF8404600F078F8364962
:102A800007EB47004218032306214046FFF786FF65
:102A900031480921C01C425D4046FFF7AFFF0B22C1
:102AA00011464046FFF7AAFF23220C214046FFF7BC
:102AB000A5FF294D0727ED1DE81D295D805D06292D
:102AC0002BD0022101EB0010C2B21D214046FFF7BE
:102AD00095FF285D1E2107EB0010C2B24046FFF7AC
:102AE0008DFFFF221F214046FFF788FF0022202193
:102AF0004046FFF783FF0C2221214046FFF77EFF6F
:102B0000012241214046FFF779FF0021404688F825
:102B10000A11BDE8F04100F0B5B8032101EB001047
:102B2000C2B21D214046FFF769FF285D1E2107EB59
:102B30000010C2B24046FFF761FF31214046FFF767
:102B40004EFF00F0F80040F0050231214046FFF74B
:102B500055FF0C223721C1E79037000808B5C1792D
:102B60000091837942790179FFF77AFF08BD8822C5
:102B70000121FFF743BFFEF779BA10B50189C0689C
:102B800089B2FEF763FB012800D0002010BD10B50C
:102B90000446012100F041F82088002281B26068DB
:102BA000FEF75DFB0120FFF7E6FF2088012281B2DE
:102BB0006068FEF754FB6420FFF7DDFF10BD13B51E
:102BC0000446002100F029F84FF47A73012201A98C
:102BD000A069FEF7BDFFA069FEF74AFF0128FAD100
:102BE0001CBD3EB5044600208DF808008DF8040099
:102BF0000146204600F011F84FF47A70009001234E
:102C000001AA02A9A069FFF757F8A069FEF730FFF3
:102C10000128FAD19DF804003EBD012905D000220B
:102C2000018A406989B2FEF71ABB0122F8E710B5A4
:102C300004460121FFF7F1FF2088012281B260687C
:102C4000BDE81040FEF70BBB70B5054690F80A01D1
:102C500014460E46A04200D00446224605F10A0161
:102C60003046FDF76FFA0020305585F80A012046FE
:102C700070BD10B5044608220121FFF7BFFE0020F9
:102C8000607210BD10B5044609220121FFF7B6FE9F
:102C90000120607210BD10B5FEF7ECFABDE81040DF
:102CA000FFF717B930B593B001210804CDE9001042
:102CB0000025029502240491CDE907404FF4E0106D
:102CC00009906846FEF752FD00B1FEE70AA90F2001
:102CD00081E831004FF48060CDE90D0502210AA89A
:102CE000FEF73EFC00B1FEE74FF4004011900F9458
:102CF0000FA8FEF7BFFB00B1FEE7FEF7DBFC4FF4C9
:102D00007A71B0FBF1F0FFF7D0F80420FFF7C0F8BC
:102D100000221146501EFEF77BFB13B030BD0000B1
:102D20000D48016841F00101016041680B4A114002
:102D3000416001680A4A11400160016821F4802164
:102D40000160416821F4FE0141604FF41F01816080
:102D50000449C00308607047001002400000FFF8FB
:102D6000FFFFF6FE08ED00E00148FFF7AAB90000FA
:102D7000C0000020F0B50268164B174C174D4FF0FD
:102D80008047984205D0B84203D0A04201D0A84263
:102D900003D122F070064A683243984205D0B84207
:102DA00003D0A04201D0A84203D122F44074CA68E3
:102DB000224322F080044A69224302608A68C26288
:102DC0000A688262984201D1096901630121416167
:102DD000F0BD0000002C014000040040000800404D
:102DE00010B5846842EA032224F47F440A43224354
:102DF000826010BD826822F070020A4342F007012F
:102E00008160704710B5036A046A24F0010404620B
:102E1000846924F0F00444EA021423F00A020A430D
:102E20008461026210BD10B5036A23F010030362CF
:102E30008369046A23F4704343EA023224F0A00356
:102E400043EA01118261016210BD10B5406A0021A0
:102E5000C185C184FFF7ECF910BD0168CA6822F48E
:102E60009072CA6001684A6922F001024A61202119
:102E700080F83A10704710B590F83A10222901D026
:102E8000022010BD8168B1F5805F11D00169002971
:102E900001681FD0496801F07F03816A4A1C826281
:102EA0000B70C18D491E0904090CC18518D02BE097
:102EB0000269816A002A0268526805D0D2B20A808B
:102EC000816A491C8162ECE7C2F308020A80816AC8
:102ED000891CF7E74A68816A4B1C83620A70E0E745
:102EE0000168CA6822F02002CA600168CA6822F438
:102EF0008072CA6001684A6922F001024A61202199
:102F000080F83A10FFF754FA002010BD2DE9F04187
:102F1000044600680169E26821F4405111430161EF
:102F20002169A0680843616908432168CA6841F2C1
:102F30000C639A430243CA6020684169A26921F484
:102F40004071114341614C49206864253226884212
:102F50003CD1FEF7C5FB00EBC00101EB001061683E
:102F60008900B0FBF1F7FEF7BBFB00EBC00101EB02
:102F700000106168B0468900B0FBF1F0B0FBF5F0DD
:102F80006FF01801484307EB800106EB0110B0FB1E
:102F9000F5F000F0F006FEF7A3FB00EBC00101EB3B
:102FA000001061688900B0FBF1F0B0FBF5F006EBB2
:102FB0000016FEF795FB00EBC00101EB0010616805
:102FC0008900B0FBF1F7FEF78BFB3BE0FEF778FBE7
:102FD00000EBC00101EB001061688900B0FBF1F764
:102FE000FEF76EFB00EBC00101EB00106168B0461C
:102FF0008900B0FBF1F0B0FBF5F06FF01801484329
:1030000007EB800106EB0110B0FBF5F000F0F006D5
:10301000FEF756FB00EBC00101EB00106168890070
:10302000B0FBF1F0B0FBF5F006EB0016FEF748FB45
:1030300000EBC00101EB001061688900B0FBF1F703
:10304000FEF73EFB00EBC00101EB00106168890058
:10305000B0FBF1F0B0FBF5F06FF01801484307EB5F
:10306000800108EB0110B0FBF5F0216800F00F00C3
:1030700030448860BDE8F0810038014090F8391094
:10308000212901D0022070478168B1F5805F016A73
:103090000BD04A1C0262026809785160C18C491E3B
:1030A0000904090CC1840ED017E009880268C1F335
:1030B0000801516001690029016A02D0491C0162BE
:1030C000ECE7891CFBE70168CA6822F08002CA604D
:1030D0000068C16841F04001C160002070472DE9DF
:1030E000F041984617460E460446069D1DE0681CB2
:1030F0001BD02DB1FEF7B8F8A0EB0800A84214D9F8
:103100002068C16821F4D071C1602068416921F054
:1031100001014161202084F8390084F83A00002040
:1031200084F838000320BDE8F0812068006836EAA2
:10313000000004D00020B842D9D00020F3E70120DD
:10314000F9E700000148FFF775B800000001002012
:10315000FEE7FEE70FB4054B10B503A9044A029839
:1031600000F02CF810BC5DF814FB000009350008D5
:10317000340000200FB4084B10B504A902AA03982C
:1031800000F01CF8044602A9002000F0B8F920461F
:1031900010BC5DF814FB0000FF34000802E008C812
:1031A000121F08C1002AFAD170477047002001E0C1
:1031B00001C1121F002AFBD1704700002DE9FF4F0B
:1031C0008BB088460546002606E025280BD0DDE9B1
:1031D0000D1290476D1C761C28780028F5D10FB091
:1031E0003046BDE8F08F0024A146A2460122AE4938
:1031F00000E0044315F8013F203B02FA03F00842C7
:10320000F7D128782A2810D06FF02F022878A0F163
:103210003001092915D809EB890102EB410144F07D
:10322000020400EB01096D1CF0E758F8041B5FEA8B
:10323000010903D544F40054C9F1000944F0020423
:103240006D1C28782E2817D115F8010F44F00404BE
:103250002A280ED06FF02F022878A0F1300109291A
:103260000AD80AEB8A0102EB410100EB010A6D1C4E
:10327000F2E758F804AB6D1C28786C280FD006DCF8
:103280004C2817D068280DD06A2814D104E074287F
:1032900010D07A280FD10DE044F400140AE044F471
:1032A000801401E044F440146978814202D104F5AD
:1032B00080146D1C6D1C2878692865D006DC0028F8
:1032C0008DD0632827D0642806D15DE06E2808D011
:1032D00073282AD0752877D0DDE90D129047761C27
:1032E000E0E0C4F30250022809D003280DD0D8F83A
:1032F000001004280DD00E6008F10408D2E0D8F8C0
:103300000010F217C1E90062F6E7D8F800100E804D
:10331000F2E70E70F0E718F8041B8DF8001000209B
:103320008DF80100EB46012003E058F804BB4FF094
:10333000FF3061074FF0000701D40AE07F1C5745BA
:103340000DDA8742FADB1BF807100029F6D106E0F8
:103350007F1C8742FCDB1BF807100029F8D1DDE950
:103360000D23A9EB07008146214600F0B1F8304457
:10337000C61904E0DDE90D121BF8010B90477F1E12
:10338000F8D22146484688E058F8040BC4F30251AD
:103390004FF00A0B032900D100B2042900D140B23A
:1033A000002802DA40422D2102E0210505D52B211B
:1033B0008DF82410012104E006E0E10710D020215F
:1033C000F6E708AF089113E058F8040BC4F3025174
:1033D0004FF00A0B032900D180B2042900D1C0B2FA
:1033E0000021EEE75946FDF782F8303107F8011D5C
:1033F0000028F7D1ADEB070000F1200B600702D5E4
:1034000024F4803401E04FF0010ADA4502DDAAEB32
:103410000B0000E00020824600EB0B0108980144FD
:10342000A9EB01000A90E00306D4DDE90D23214653
:103430000A9800F04DF806444FF0000908E009A989
:1034400011F80900DDE90D12904709F10109761C18
:1034500008998945F3DBE0030CD5DDE90D2321460E
:103460000A9800F035F8064404E0DDE90D1230203A
:103470009047761CBAF10001AAF1010AF5DC05E0DB
:10348000DDE90D1217F8010B9047761CBBF1000126
:10349000ABF1010BF4DC0A982146DDE90D2300F0C5
:1034A00005F806446D1C97E6092801002DE9F04156
:1034B000044600251E461746880404D405E0394614
:1034C0002020B0476D1C641EF9D52846BDE8F08168
:1034D0002DE9F041044600251E469046C80301D55B
:1034E000302700E02027880404D505E0414638460F
:1034F000B0476D1C641EF9D52846BDE8F0810A6806
:10350000531C0B601070704713B564230122694689
:103510000248FEF74EFF00981CBD0000000100208D
:103520001CB5FDF7AFFEFFF7BDFBFEF7D7FF7D48EB
:10353000416941F0010141614069002200F0010050
:10354000009011460B20FDF763FF0B20FDF755FFA0
:10355000FFF74EF8FEF78CFFFFF76AF8FFF792F8D7
:10356000032271497148FDF735FB7048FDF7B8FB40
:103570006E488830FEF71FFD6C488830FEF70EFD60
:103580006C486D4ADFF8A8B142611022C0E903B26D
:103590004FF0010AC0E901BA02210160A0F5B27141
:1035A000816100F11C01086064A0FFF7D3FD0A21CE
:1035B0000320CDE900015F480223012200211C30D5
:1035C000FFF732FA64A0FFF7C5FD574C4FF4FA68D5
:1035D0001C3C424660684FF010010128554800F13C
:1035E0001C0008D0FFF7D7F84FF4C8690025E06049
:1035F000606818B115E0FFF71AF9F5E74D481C307F
:10360000FFF755F9E06000280BDD4A4902468C3986
:1036100001F1A800FFF718FB464F8C3F387832289D
:103620001CD060680128E3D13F4F002625610322AA
:103630003D493E48FDF7CEFA39882069761C08449A
:103640002061052EF3DB0521B0FBF1F0801C80B278
:10365000608048451BD8A4F802901DE0354E78786C
:103660000C3E317888420FD0312802D0302803D068
:1036700008E00022A06000E001224FF4804158469B
:10368000FDF7EDFD78783070C4F804A0CCE740F683
:103690000661884200D361806088FCF7FFFE00224B
:1036A000354BFCF714FE0022344BFCF788FE002259
:1036B000334BFCF712FEFCF7FEFE324F4FF4005680
:1036C000606131463846FDF7C6FD6420FDF7CEFC4B
:1036D00031463846FDF7BFFD1648638822782AA197
:1036E0004C38FFF747FDC1B2A0611248464642463A
:1036F0001C30FFF79CF80027E0600E49227E4C3911
:10370000334601F16800FFF7FFF87F1CE060022FED
:10371000F3DB0848324610211C306560FFF73BF8A8
:10372000E06065E7001002401C0000203800002027
:10373000000C0140CC01002000080140436F6E6680
:1037400069677572696E67204C6F5261206D6F6496
:10375000756C650D0A000000446F6E6520636F6E26
:103760006669677572696E67204C6F52614D6F6450
:10377000756C650D0A000000000CAC4000189FC07D
:10378000000059400010014025642564000000003D
:103790006C8000FFFCF9F6060708090A0B0C000113
:1037A00002030405060708090000000000000000ED
:1037B00001020304060708090000000001020304D7
:1037C000E037000800000020380000009C310008AD
:1037D000183800083800002000070000AC3100084D
:1037E00002000000000000000000000000000000D7
:1037F00000000000000000000000000000000000C9
:1038000000000000010000001000000000000000A7
:0838100000A24A0400000000C0
:04000005080000ED02
:00000001FF
