:020000040800F2
:10000000C0070020010100089F300008972A00085F
:100010009D30000871080008353B00080000000012
:10002000000000000000000000000000793100081E
:10003000AB08000800000000C13000087B36000853
:100040001B0100081B0100081B0100081B01000820
:100050001B0100081B0100081B0100081B01000810
:100060001B0100081B0100081B010008750800089F
:100070001B0100081B0100081B0100081B010008F0
:100080001B0100081B010008350700081B010008C0
:100090001B0100081B0100081B0100081B010008D0
:1000A0001B0100081B0100081B0100081B010008C0
:1000B0004D3700081B0100081B0100081B01000848
:1000C0001B0100081B0100081B0100081B010008A0
:1000D0001B010008293B00081B0100081B01000848
:1000E0001B0100081B0100081B010008DFF80CD0F1
:1000F00000F0FEFA00480047053F0008C007002056
:100100000648804706480047FEE7FEE7FEE7FEE7B1
:10011000FEE7FEE7FEE7FEE7FEE7FEE7053700083D
:10012000ED000008202A04DB203A21FA02F0002129
:10013000704721FA02F3D040C2F1200291400843F7
:100140001946704740EA01039B0703D009E008C93C
:10015000121F08C0042AFAD203E011F8013B00F88C
:10016000013B521EF9D27047D2B201E000F8012BD8
:10017000491EFBD270470022F6E710B513460A4627
:1001800004461946FFF7F0FF204610BDF0B480EAA0
:100190000102D40F4200B2EB410F02D202460846E0
:1001A00011464A0042D0C30DDDB2C1F3C752AD1AA9
:1001B000202D35DAC1F3160141F4000204B1524298
:1001C000C5F1200602FA06F12A411044B3EBD05FD4
:1001D00023D0C4B1012DA0EBC35009DCF0BC4FF01B
:1001E000004202EAC352DBB200F5000000F0F4B9AD
:1001F000400000F1807000EBC350A0F1807040EA35
:10020000D170490009E0490841EAC071A0EBC35030
:1002100000F50000400800EBC350F0BC00F0D3B97B
:100220006142012202EB4101001BF6E7F0BC70477E
:1002300081F00041AAE780F00040A7E780EA0102D0
:1002400010B502F00043400022D04A001FD0010E3A
:1002500001EB1261C0F35600C2F3560240F40000F5
:1002600042F40002A0FB022000047F39140400D0F5
:10027000401C50EA124001D44000491EC2B20C0694
:1002800004EBD010401C4008802A02D003E000207C
:1002900010BD20F00100002900DA0020184310BD35
:1002A00030B480EA010202F0004530F0004221F053
:1002B000004013D090B1C30DD40DC2F31601C0F3AA
:1002C0001600E41A41F4000140F400027D3491422A
:1002D00001D3641C00E04900002C02DA30BC00208D
:1002E00070474FF400000023914201D3891A034361
:1002F00040084FEA4101F7D151B1914202D14FF08C
:10030000004105E002D24FF0010101E06FF0010170
:1003100003EBC450284430BC00F055B92DE9FE4F22
:1003200081EA030404F0004421F0004100944FF0FE
:10033000000B23F0004350EA01045ED052EA0304AC
:100340005BD0C3F30A54C1F30A552C44A4F2F3342E
:100350000194A0FB0254C1F3130141F48011C3F3D3
:10036000130343F4801301FB024400FB034E840A91
:10037000970A44EA815447EA8357A4FB0768029529
:100380008D0A05FB07854FEA932C04FB0C542705C7
:10039000029D4FEA065847EA1637B5EB08056EEBA3
:1003A000070C870E920E47EA811742EA8312A7FBD9
:1003B0000201B6EB0B0164EB00042B0D43EA0C3396
:1003C0005E1844EB1C50DA465146E7FB0201C5F3C8
:1003D00013044FEA0B3343EA14534FEA0432019CEF
:1003E00043EA0603A4F10C040294009CCDE900B496
:1003F00000F02FF903B0BDE8F08F00200146F9E7C7
:100400002DE9F04D81EA030404F0004B21F0004592
:1004100014464FF0000A23F0004150EA050220D0B4
:1004200054EA01021DD0C5F30A570246C5F313036F
:10043000C1F31300C1F30A5640F4801543F480134E
:10044000A7EB0608101BD64608F2FD3873EB050033
:1004500002D308F1010801E092185B41B8F1000FE6
:1004600003DA00200146BDE8F08D00204FF4801132
:10047000064684460EE0171B73EB050705D3121BD7
:1004800063EB050306434CEA010C49084FEA3000D0
:1004900092185B4150EA0107EDD152EA030012D0F5
:1004A00082EA040083EA0501084305D0101BAB4132
:1004B00006D20122002306E000224FF0004302E0B2
:1004C0006FF0010253101AEB06004CEB085110EBD1
:1004D0000A0041EB0B01BDE8F04D00F0ABB8C10FD5
:1004E00080EAE0700844CA079623002100F074B83F
:1004F0000EB540F2334102910021CDE900110A46C8
:100500000B4600F0A6F803B000BD00F0004220F05A
:100510000040C10DC0F3160040F400007F2901DA4D
:1005200000207047962903DCC1F19601C84001E024
:1005300096398840002AF4D04042704700F00042CB
:1005400030F000400AD0C10D01F56071C0F3160013
:1005500042EA0151C208400711437047002001469A
:10056000704701F0004330B421F0004150EA01022D
:1005700006D00A0DA2F56072C1F31301002A02DC55
:1005800030BC00207047440F44EAC104C100E018A9
:1005900030BC00EBC25000F016B830B50B46014637
:1005A00000202022012409E021FA02F59D4205D312
:1005B00003FA02F5491B04FA02F52844151EA2F1BC
:1005C0000102F1DC30BD0029A8BF7047401C490082
:1005D00008BF20F00100704710B4B0FA80FC00FAA8
:1005E0000CF050EA010404BF10BC704749B1CCF1D3
:1005F000200421FA04F411FA0CF118BF012121435F
:100600000843A3EB0C01CB1D4FEA00614FEA102019
:1006100042BF002010BC704700EBC35010440029BB
:10062000A4BF10BC7047401C490008BF20F0010067
:1006300010BC704710B5141E73F1000408DA401C9A
:1006400041F1000192185B411A4301D120F00100F1
:1006500010BD2DE9F04D92469B4611B1B1FA81F2E1
:1006600002E0B0FA80F22032904600F053F80446DF
:100670000F4640EA0A0041EA0B0153465A46084336
:1006800013D0114653EA010019D0C8F14002504678
:10069000FFF748FD05460E4650465946424600F0D3
:1006A00039F8084305D0012004E020463946BDE86A
:1006B000F08D0020054346EAE0762C4337430A9844
:1006C0006305E40AA0EB08000022FD0A44EA47544F
:1006D0000A3002D500200146E9E7010510196941F9
:1006E000DDE9084500196941BDE8F04DA2E70000C9
:1006F000064C074D06E0E06840F0010394E807006F
:1007000098471034AC42F6D3FFF7F4FCEC410008F4
:100710000C420008202A04DB203A00FA02F10020F3
:1007200070479140C2F1200320FA03F3194390402F
:1007300070470000014800F0A3B9000060000020ED
:1007400070B5044600688168C943C9071CD1816837
:1007500021F00101816000F035FE05460FE000BF89
:1007600000F030FE401B022809D9A06A40F01000BA
:10077000A062E06A40F00100E062012070BD2068E4
:100780008068C043C007EBD0002070BD10B50146A3
:10079000406A826A12F0500F05D0006A026BBDE811
:1007A000104008461047816A41F400718162016877
:1007B0008968C1F3424107290CD1C16851B9816AE6
:1007C00021F480718162816AC90403D4816A41F095
:1007D0000101816200F0EAF810BD10B5406A816A3B
:1007E00041F040018162C16A41F00401C16200F040
:1007F00046F910BD10B5406A00F040F910BD000088
:10080000F8B500260446009600688168C943C90708
:1008100028D0816841F001018160134813490068C4
:10082000B0FBF1F000E0401E00900028FBD100F08A
:10083000C9FD054611E000BF00F0C4FD401B0228C1
:100840000BD9A06A40F01000A062E06A40F00100FD
:10085000E06284F824600120F8BD20688068C0430D
:10086000C007E9D10020F8BD5800002040420F0029
:10087000FEE70000014800F093BB00007C0300206D
:1008800030B590F840500124AC40C56B6C600468F2
:1008900063604368102B036803D099600068C260EE
:1008A00030BD9A600068C16030BD7047704700007D
:1008B000F8B50024009490F824202546012A12D08F
:1008C000012280F824204A681F23072A0DD20668D7
:1008D000776B521E02EB820293409F430B6893405A
:1008E0001F43776319E00220F8BD06680D2A0AD27B
:1008F000376BD21F02EB820293409F430B689340F9
:100900001F43376309E0F76A0D3A02EB8202934016
:100910009F430B6893401F43F7620A6807230668EA
:100920000A2A0AD3F7680A3A02EB420293409F432D
:100930008B6893401F43F76008E0376902EB42027F
:1009400093409F438B6893401F4337610A68102A86
:1009500001D0112A20D1124B02689A4217D1936814
:100960001B0219D4936843F40003936009681029AB
:1009700012D10C490C4A0968B1FBF2F101EB81017B
:10098000490000E0491E00910029FBD104E0816A82
:1009900041F020018162012480F824502046F8BDF6
:1009A000002401405800002040420F002DE9F0478C
:1009B00000682B49884250D12A4E3088FFF798FDB5
:1009C000DFF8A4A04FF0663842465346FFF7A6FC76
:1009D000FFF7C7FDDFF894904946FFF761FC244F0D
:1009E00024493860FFF72AFC2349FFF759FC4FF0F0
:1009F0007E51FFF71DFCA6F1440405466061FFF738
:100A000084FDE061FFF76BFD2946FFF714FC60628F
:100A10007088FFF76DFD42465346FFF77FFCFFF7F6
:100A2000A0FD4946FFF73CFC78600546A061FFF752
:100A30006CFD2062FFF753FD2946FFF7FCFBA06227
:100A4000B088FFF755FD42465346FFF767FCFFF7B6
:100A500088FD4946FFF724FCB860BDE8F087000038
:100A6000002401404400002066660A4000F07F45F3
:100A7000BC01002000000C430000E84170477047B3
:100A800010B5044600684168890626D501688907C3
:100A900023D5A16AC90603D4A16A41F40071A162F9
:100AA0008168C1F34241072910D1E16871B94168F9
:100AB00021F020014160A06A20F48070A062A06A49
:100AC000C00403D4A06A40F00100A0622046FFF7F2
:100AD0006DFF21686FF01200086020684168090608
:100AE0002ED5016849072BD5A16AC90603D4A16A8E
:100AF00041F40051A1628168C1F30231072909D094
:100B00004168490515D48168C1F34241072910D1D4
:100B1000E16871B9416821F080014160A06A20F468
:100B20008050A062A06AC00503D4A06A40F0010012
:100B3000A0622046FFF7BAFE21686FF00C00086043
:100B40002068416849060DD50068C0070AD0A06A30
:100B500040F48030A062204600F094F821686FF0E5
:100B60000100086010BD00002DE9F0414FF00007C2
:100B700004003D467ED0A06A002628B9E66284F8CB
:100B80002460204600F080F82046FFF7D9FDA16AD6
:100B900001F01001014304D0A06A40F01000A062EF
:100BA00068E0A16A21F4885141F00201A162626803
:100BB000E169E3680A4347EA43010A43A1684FF445
:100BC0008077B94208D0012906D00021D4F814C09A
:100BD000BCF1010F02D00AE03946F7E7F3B1A36A8E
:100BE00043F02003A362E36A43F00103E362236856
:100BF000D3F804C02CF4694C4CEA010CC3F804C0CF
:100C000023689968DFF870C001EA0C01114399600C
:100C1000A168B9420BD0012909D00CE0DFF85CC013
:100C2000A3690CEB43330B4343F40061DFE7218AF4
:100C30000D05A5F580152168CB6A23F470032B43BD
:100C4000CB62216889680E4B1940914208D1E66257
:100C5000A16A21F0020141F00101A162BDE8F08129
:100C6000A06A20F0020040F01000A062E06A40F0AC
:100C70000100E0620120F1E7FDF7E1FF00E0FFFF86
:100C8000FE0E1FFF7047000030B5054600681C4986
:100C900085B0884231D11B48816941F4007181617E
:100CA0008069694600F400700490072000900320DA
:100CB0000190154800F09AFA154C144880212060E4
:100CC00000206060C4E9020149002161890061617E
:100CD0002021C4E90610204600F00CFA18B1772153
:100CE0000CA002F028FF2C6200221146122065623F
:100CF00000F0A2FE122000F094FE05B030BD00000E
:100D00000024014000100240000801400800024099
:100D10007C0300202E2E2F5372632F73746D333299
:100D2000663178785F68616C5F6D73702E63000068
:100D30002DE9F047894604463B4900683B4F0E1DAC
:100D40009046884201D0B84207D1306810F4702F25
:100D500003D001252846BDE8F08794F82400012837
:100D60000CD0012084F824002046FFF749FD05003F
:100D70004FF0000004D084F82400EBE70220EAE7FB
:100D8000A16A40F60162914341F48071A162216839
:100D9000B94218D1326812F4702F14D0A16A41F40C
:100DA0008011A1623168490505D5A16A21F400517D
:100DB00041F48051A162A16AC9040AD5E16A21F017
:100DC0000601E16206E0A26A22F48012A26249688A
:100DD000E9E7E06284F82400216A15488862216A04
:100DE0001448C862216A1448086321686FF0020041
:100DF00008602068816841F4807181602168434601
:100E00004A464C31206A00F0A7F920688168C1F396
:100E100042410729816803D041F48011816099E73C
:100E200041F4A001FAE7000000240140002801403D
:100E30008D070008F5070008DB07000870B50446B9
:100E400090F8240001280DD0012084F824002046C9
:100E5000FFF7D6FC02004FF0000005D084F8240014
:100E6000104670BD022070BDA16A40F6016399432F
:100E700041F48071A162224D23682249AB4218D10E
:100E80000E6816F4702F14D0A66A46F48016A66277
:100E90000E68760505D5A66A26F4005646F48056F7
:100EA000A662A66AF6040AD5E66A26F00606E66297
:100EB00006E0A66A26F48016A6625E68E9E7E062AC
:100EC00084F824006FF0020018602068436843F043
:100ED0002003436020688368C3F34243072B05D196
:100EE000A84208D1096811F4702F04D0816841F438
:100EF00080118160B4E7816841F4A001F9E7000046
:100F0000002801400424014010B590F8211000246D
:100F1000022903D00421816301243DE001680A68AD
:100F200022F00E020A6001680A6822F001020A60DB
:100F30001A4A0168914201D1012121E0174A143275
:100F4000914201D110211BE0144A2832914201D173
:100F5000891515E0114A3C32914201D189140FE004
:100F60000E4A5032914202D14FF4803108E00B4AD0
:100F70006432914202D14FF4801101E04FF0807150
:100F8000064A083A5160012180F82110002180F8BA
:100F90002010416B01B18847204610BD0800024077
:100FA0002DE9F05FC16B0C6801680B68D0F840C098
:100FB000042202FA0CF2494DDFF824A1494E4A4FAF
:100FC000DFF828B1DFF828E122422CD05A072AD5D1
:100FD0000A68920603D40A6822F004020A600168D3
:100FE000A94201D1042219E0514501D1402215E066
:100FF000B14202D14FF4806210E0B94202D14FF405
:1010000080420BE0594502D14FF4802206E0714541
:1010100002D14FF4800201E04FF080622F4908397D
:101020004A60C16A3BE04FF0020808FA0CF818EA7F
:10103000040F4FF000094FF0010235D05FEA8378CA
:1010400032D50B689B0605D40B6823F00A030B60AE
:1010500080F821200168A94201D1022219E05145FE
:1010600001D1202215E0B14202D14FF4007210E00C
:10107000B94202D14FF400520BE0594502D14FF46E
:10108000003206E0714502D14FF4001201E04FF04A
:101090000072124908394A6080F82090816A00295C
:1010A0001AD0BDE8F05F0847082505FA0CF525427F
:1010B00012D01B0710D50B6823F00E030B6090F8BD
:1010C0004010C36B02FA01F15960826380F821205D
:1010D00080F82090016BE2E7BDE8F09F0800024035
:1010E0001C00024030000240440002405800024010
:1010F0006C00024030B548B308C8154914221944A1
:10110000B1FBF2F18900C163124981630221417789
:101110001A6843F6F0718A43D0E900142143D0E9FC
:1011200002452C43214304692143446921438469D6
:10113000214311431960002141628162C162016350
:101140004163012242770177084630BD012030BD5E
:10115000F8FFFDBF0000024070B5044690F8200083
:10116000002501280CD0012084F8200094F821608B
:101170000020012E06D084F820000225284670BDEC
:10118000022070BD022684F82160A06320680668F2
:1011900026F0010606602046FFF772FBE06A002891
:1011A0002068016802D041F00E0106E021F0040140
:1011B00001602068016841F00A010160206801684F
:1011C00041F001010160D9E770B5044600F0FAF87A
:1011D0000546601C02D004480078044400F0F2F890
:1011E000401BA042FAD370BD4C0000202DE9F84FFF
:1011F000DFF890A100220AF1040B144601274FF0FA
:101200000F090BF1040E00BF0B6807FA04F52B4021
:10121000AB4274D1DFF870C14E68A6EB0C0866458E
:101220002BD00DDC032E34D005DC36B3012E19D0C3
:10123000022E2FD11BE0112E16D0122E2AD119E02A
:10124000B8F5881F19D006DCB8F5803F15D0B8F581
:10125000801F1FD111E0B8F5001F0ED0B8F5041F94
:1012600018D10AE0CA6815E0CA68121D12E0CA68FF
:1012700008320FE0CA680C320CE08A682AB1012AF1
:101280004FF0080203D0456104E0042202E005614A
:1012900000E00022FF2B01D8064601E000F1040621
:1012A0004FEA840501D9A5F12005D6F800C009FA56
:1012B00005F82CEA080C02FA05F54CEA050CC6F80C
:1012C00000C04D68ED0057D5304DAE6946F00106BF
:1012D000AE61AD6924F0030605F0010500952C4DC3
:1012E00006EB050CDCF80850A6074FEA167809FA59
:1012F00008F6B543274EB04202D1002610E03BE08D
:10130000254EB04201D101260AE0244EB04201D15F
:10131000022605E0224EB04201D1032600E0042659
:1013200006FA08F62E43CCF808604D68DAF800603B
:10133000ED03554601D51E4300E09E432E604D68E7
:10134000DBF80060AD035D4601D51E4300E09E431F
:101350002E604D68DEF80060ED02754601D51E4333
:1013600000E09E432E604D68AD020E4D2E6801D503
:101370001E4300E09E432E60641C102CFFF444AF1B
:10138000BDE8F88F00040140000011100010024079
:101390000000014000080140000C01400010014025
:1013A000001401400C0401408068084000D0012076
:1013B0007047C2684A40C26070470AB10161704715
:1013C0000904FBE701488068704700004C000020DA
:1013D00070B504001BD094F83D00002520B984F8B6
:1013E0003C50204600F038FA242084F83D00206864
:1013F000016821F00101016000F076FC404A61685B
:10140000914201D83F4900E03F49884201D2012082
:1014100070BD3E492368B0FBF1F1596063689342A7
:1014200006D94FF4967359434FF47A73B1FBF3F135
:101430002368491C19626168914210D84900401E16
:10144000B0FBF1F2521CC2F30B02042A01D20420B9
:1014500022E0B0FBF1F0401CC0F30B001CE0A368DD
:10146000CBB301EBC10202EB0116421EB2FBF6F256
:10147000521C42F48042120536D06BB301EBC1021C
:1014800002EB0111401EB0FBF1F0401CC0F30B0059
:1014900040F4804040F400402168C861D4E907016D
:1014A000084321680860D4E9031008432168886074
:1014B000D4E9050108432168C8602068016841F04B
:1014C000010101602564202084F83D00256384F833
:1014D0003E50002070BD00E008E001EB4106421ED6
:1014E000B2FBF6F2521CC6E70120D5E701EB410141
:1014F000401EB0FBF1F0401CC0F30B00CAE7000037
:10150000A086010080841E0000093D0040420F00BB
:101510002DE9F84F1F4690468A460446DDF828908C
:10152000FFF750FF054694F83D0020287ED119238F
:10153000012278492046009501F0A3FB0028F5D14F
:1015400094F83C00012871D0012084F83C00206808
:101550000168C90703D1016841F0010101602068F9
:10156000016821F400610160222084F83D00102010
:1015700084F83E0000262664C4F824806785664807
:10158000E062608D20852B464A465146204601F098
:1015900097FA28B1206C84F83C60042850D073E09E
:1015A000208D5E4F68B1012814D0022820680168A0
:1015B0001ED041F48061016020684169806900901B
:1015C0009AE02068416981690091016841F40071E5
:1015D000016091E02068016821F48061016072B6C9
:1015E0002068416981690091016841F400710AE055
:1015F00041F40061016072B620684169816900911F
:10160000016821F48061016062B675E0032850D85A
:1016100001280CD002284B464FF0000239462046E4
:10162000009512D001F02DFB70BB13E070E02A464C
:101630004946204601F09AFB28B1206C202823D08F
:101640000120BDE8F88F20684BE001F01AFBD8B903
:1016500072B61BE02068016821F48061016072B6F7
:1016600020680169606A421C62620170208D401E20
:101670002085608D401E60854B46002239462046FD
:10168000009501F0FEFA08B10320DAE7206801684E
:1016900041F40071016020680169606A421C626265
:1016A0000170208D401E2085608D401E608562B6D1
:1016B000C9E72A464946204601F058FB0028BCD11C
:1016C00020680169606A421C62620170208D401EC0
:1016D0002085608D401E608520684169C9434907A7
:1016E0000AD40169606A421C62620170208D401E4A
:1016F0002085608D401E6085208D002886D12020A9
:1017000084F83D0084F83E6084F83C60002098E74F
:10171000022096E7020010000000FFFF0400010015
:101720002DE9F84F1F4690468A460446DDF828907A
:10173000FFF748FE064694F83D0020287ED1192385
:10174000012243492046009601F09BFA00287DD1F2
:1017500094F83C00012879D0012084F83C002068EE
:101760000168C90703D1016841F0010101602068E7
:10177000016821F400610160212084F83D001020FF
:1017800084F83E0000252564C4F82480678531482C
:10179000E062608D208533464A465146204601F07E
:1017A000FFF928B1206C84F83C5004284CD00DE09F
:1017B000206841698069009030E032464946204601
:1017C00001F005FB28B1206C042838D00320BDE8C7
:1017D000F88F606A411C6162216800780861608D41
:1017E000401E6085208D401E80B2208521684A6998
:1017F000D24352070BD450B1606A421C6262007837
:101800000861608D401E6085208D401E2085324617
:101810004946204601F00EFA0028D4D1208D002838
:10182000CBD154F83D0B016841F4007101602020D8
:1018300004F81E09E57765770020C8E706E0206810
:10184000016841F4007101600120C0E70220BEE799
:10185000020010000000FFFF00B500680C4985B0D1
:10186000884213D14FF44060009012200190032071
:10187000039069460748FFF7B9FC0748C16941F47E
:101880008001C161C06900F48000049005B000BD12
:1018900000580040000C01400010024002488168DE
:1018A00002781144816070474C000020074810B551
:1018B000016841F010010160032000F0DDF8002014
:1018C00000F006F800F024F8002010BD00200240CF
:1018D00070B50D4D04464FF47A712878B1FBF0F0E5
:1018E0000A490968B1FBF0F000F0F3FD48B9102C8B
:1018F00007D200222146501E00F09EF800206C60A6
:1019000070BD012070BD00004C0000205800002078
:10191000214808B5816941F001018161816901F0C7
:1019200001010091C16941F08051C161C06900F0BD
:1019300080500090032000F09FF8002211466FF0C5
:101940000B0000F079F8002211466FF00A0000F059
:1019500073F8002211466FF0090000F06DF80022C4
:101960001146501F00F068F800221146101F00F0C9
:1019700063F800221146901E00F05EF80022114626
:10198000501E00F059F80548416821F0E06141F02F
:101990000071416008BD00000010024000000140DD
:1019A0002DE9F04116460F46040004D094F83900A2
:1019B000002518B107E00120BDE8F08184F8385017
:1019C000204600F0D3FF242084F839002068C16845
:1019D00021F40051C160204601F08AFF20680169AE
:1019E00021F4904101612068416921F02A0141619F
:1019F0002068016921F00F01394301612068C16845
:101A000021F400613143C1602068C16841F4005194
:101A1000C160E563202084F8390084F83A00002092
:101A2000CAE700F01F02012191404009800000F147
:101A3000E020C0F800117047F0B40E4B1B680C4654
:101A4000C3F30223C3F10705042D00D90425191D92
:101A5000072901D2002300E0DB1E012606FA05F16A
:101A6000491E214099409E40761E16403143F0BCED
:101A700001F016BB0CED00E0064900F00702086813
:101A80004FF6FF03184040EA0220034A1043086063
:101A9000704700000CED00E00000FA052DE9F84366
:101AA00005460078354CC00754D0E0690026C000D8
:101AB00008D4E06940F08050E061E069012600F060
:101AC000805000902E480168C90512D401688046F4
:101AD00041F480710160FFF775FC074605E000BF27
:101AE000FFF770FCC01B642823D8D8F80000C0059D
:101AF000F6D5206A10F4407021D0A98801F4407115
:101B000081421CD0206A1F49012220F440700A60E3
:101B100000220A602062C00711D0FFF753FC07467D
:101B200041F2883808E000BFFFF74CFCC11B41457B
:101B300002D90320BDE8F883206A8007F4D5206A23
:101B4000696820F44070084320621EB1E06920F00B
:101B50008050E0612878800705D56068A96820F486
:101B60004040084360602878C00605D56068E96891
:101B700020F48000084360600020DBE70010024092
:101B800000700040400442422DE9F047DFF83C81FC
:101B900005460E46D8F8000000F00700B0420CD20F
:101BA000D8F8001021F007013143C8F80010D8F828
:101BB000000000F00700B04263D12878444C800751
:101BC00005D56068A96820F0F000084360602878B7
:101BD000C00745D06868012816D02168022816D0B1
:101BE000890700294DDA616821F003010143616032
:101BF000FFF7E8FB6968074641F2883001290FD0FA
:101C00000229814619D027E021688903E9E7890183
:101C1000E7E700BFFFF7D6FBC11B494501D918E034
:101C200081466068C0F381000128F3D118E000BF4D
:101C3000FFF7C8FBC11B49450BD86068C0F38100A2
:101C40000228F5D10CE000BFFFF7BCFBC11B4945E2
:101C500002D90320BDE8F087606810F00C0FF3D1C3
:101C6000D8F80010404601F00701B1420BD90168D5
:101C700021F0070131430160006800F00700B04225
:101C800001D00120E6E72878400705D56068E968BB
:101C900020F4E060084360602878000706D560689B
:101CA000296920F4605040EAC100606000F03CF80F
:101CB0006168084AC1F30311515CC84006490860D5
:101CC0000020FFF705FE0020C4E7000000200240CE
:101CD00000100240D441000858000020014800686C
:101CE0007047000058000020044805490068496812
:101CF000044AC1F30221515CC840704758000020DB
:101D000000100240E44100080448054900684968A1
:101D1000044AC1F3C221515CC840704758000020FA
:101D200000100240E441000812A185B00FC98DE8FF
:101D30000F0014A0144A006804905168134801F081
:101D40000C03042B10D0082B0ED1C1F38343C9031D
:101D50001DF803000AD5516804AAC1F34041515C43
:101D60000A4A5043B0FBF1F005B0704708494843B8
:101D7000FAE7000002030405060708090A0B0C0D28
:101D80000E0F1010010200000010024000127A0035
:101D900000093D002DE9F84F04460078B94DC00711
:101DA00048D06868C0F38100012807D06868C0F394
:101DB0008100022809D16868C00306D5286880031D
:101DC00038D5606800286FD034E06068B0F5803F97
:101DD0000BD010B1B0F5A02F11D0286820F48030BE
:101DE0002860286820F4802002E0286840F48030D1
:101DF0002860606888B1FFF7E5FA064609E02868C0
:101E000040F480202860F0E7FFF7DCFA801B6428AC
:101E100075D828688003F7D50CE0FFF7D3FA06469B
:101E200005E000BFFFF7CEFA801B6428F0D82868D1
:101E30008003F7D42078944E80074FF001094FF0CB
:101E400000083BD5686810F00C0F07D06868C0F335
:101E50008100022809D16868C00306D42868800779
:101E600014D5206901281FD110E02069B0B1C6F84F
:101E70000090FFF7A7FA074605E000BFFFF7A2FAB8
:101E8000C01B0228C4D828688007F7D52868616974
:101E900020F0F80040EAC10028600FE0C6F800809A
:101EA000FFF790FA074606E0E9E000BFFFF78AFA7D
:101EB000C01B022823D828688007F7D420780007A1
:101EC0002CD57248A169D9B1C0F80090FFF77AFA11
:101ED000074604E0FFF776FAC01B02280FD8686AAD
:101EE0008007F7D56A484FF4FA510068B0FBF1F06B
:101EF000009000BF0098411E0091FAD20EE080E0F1
:101F0000C0F80080FFF75EFA074604E0FFF75AFAD0
:101F1000C01B022875D8686A8007F7D4207840076C
:101F200060D5E8690027C00008D4E86940F0805017
:101F3000E861E869012700F0805000905548016889
:101F4000C90513D40168834641F480710160FFF72D
:101F500039FA824606E000BFFFF734FAA0EB0A0028
:101F600064284ED8DBF80000C005F5D5E0680128EC
:101F70000AD008B1052813D0286A20F00100286291
:101F8000286A20F0040002E0286A40F0010028627C
:101F9000E06841F2883B98B1FFF714FA82460BE003
:101FA000286A40F004002862EEE700BFFFF70AFA53
:101FB000A0EB0A0159455AD8286A8007F6D50CE0EB
:101FC000FFF700FA824605E0FFF7FCF9A0EB0A01F3
:101FD00059454CD8286A8007F6D41FB1E86920F02B
:101FE0008050E861E06988B36968C1F38101022922
:101FF00045D00228C6F8608004D0FFF7E3F9044614
:1020000038E034E0FFF7DEF9074604E0FFF7DAF9DD
:10201000C01B02282BD828688001F7D4206AB0F5AD
:10202000803F05D16868A16820F4003008436860EB
:10203000D4E908010843696821F474110843686011
:10204000C6F86090FFF7BEF9044606E015E000BF51
:10205000FFF7B8F9001B022809D828688001F7D5D6
:102060000BE000BFFFF7AEF9001B022802D90320E6
:10207000BDE8F88F28688001F4D40020F8E701203B
:10208000F6E7000000100240000042428004424295
:10209000580000200070004090F85100704770B563
:1020A000040005D00025A56294F8510010B104E0A9
:1020B000012070BD204600F033F8022084F8510062
:1020C0002068016821F040010160D4E90101084362
:1020D000D4E903121143084361690843218B01F4D9
:1020E00000710843E1690843216A0843A16A084373
:1020F00021680860A069042101EA1040616A084370
:10210000216848602168E06A08612068C16921F49B
:102110000061C1616565012084F85100002070BD37
:1021200010B50068114986B088421CD110488169F9
:1021300041F48051816180690E4C00F4805004901C
:10214000A0200090022001900320039069462046C1
:10215000FFF74CF800214020CDE9000102916946CB
:102160002046FFF743F806B010BD000000300140E4
:1021700000100240000801402DE9F84F044690F895
:1021800050000026994617460D4601280DD04FF005
:10219000010B84F850B0FFF715F9804694F8510010
:1021A000B246012804D0022694E00220BDE8F88F50
:1021B000002D7BD0002F79D0032084F85100C4F883
:1021C00054A02563A786E786C4F838A0A4F83CA0ED
:1021D000A4F83EA0C4F844A0C4F840A0A068B0F59C
:1021E000004F04D12068016841F4804101602068FB
:1021F0000168490603D4016841F040010160E068CC
:10220000B0F5006F606804D030B3E08E012823D0B1
:102210003EE010B1E08E01281AD135F8021B20688B
:1022200005E020688168890706D535F8021BC16082
:10223000E08E401EE0860BE0B9F1000F34D0B9F11A
:10224000FF3F05D0FFF7BEF8A0EB080149452BD2B0
:10225000E08E0028E5D11EE0216815F8010B087317
:1022600006E020688168890706D515F8011B01730F
:10227000E08E401EE0860BE0B9F1000F14D0B9F1FA
:10228000FF3F05D0FFF79EF8A0EB080149450BD2B0
:10229000E08E0028E5D14B46012202212046CDF8F0
:1022A000008000F01EFF10B1032613E011E042464B
:1022B0004946204600F005FF18B101262020606540
:1022C00008E0A06818B92068C16880680090606D57
:1022D00000B1012684F851B084F850A0304665E77B
:1022E0002DE9F84F044690F8500000260A9F9A46C0
:1022F00093460D464FF0010801280ED0012084F8C6
:102300005000FFF75FF8814694F85100616801289A
:102310000CD0B1F5827F07D102E00220BDE8F88F32
:10232000A16809B9042801D00226BDE055B1BBF16E
:10233000000F07D0BAF1000F04D094F85100012823
:1023400002D004E00126AFE0052084F8510000200F
:102350006065C4F838B0A4F83EA0A4F83CA025639A
:10236000A4F836A0A4F834A0206460642068016852
:10237000490603D4016841F040010160E068B0F50E
:10238000006F606804D0E8B3E08E01283BD06AE0BB
:1023900010B1E08E01282ED1216835F8020BC860FB
:1023A000E08E401EE08626E0B8F1000F0DD0E08EF2
:1023B00058B120688168890707D535F8021BC160CC
:1023C000E08E401EE0864FF00008E08F58B1206894
:1023D0008168C90707D0C0682BF8020BE08F401E48
:1023E000E0874FF00108781C05D0FEF7EBFFA0EB6B
:1023F0000900B84246D2E08E0028D5D1E08F0028EF
:10240000D2D136E0FFE7216815F8010B0873E08EA2
:10241000401EE08627E000BFB8F1000F0DD0E08E2F
:1024200058B120688168890707D515F8011B017329
:10243000E08E401EE0864FF00008E08F58B1206823
:102440008168C90707D0C0680BF8010BE08F401EF8
:10245000E0874FF00108781C05D0FEF7B3FFA0EB32
:102460000900B8420ED2E08E0028D5D1E08F0028B6
:10247000D2D13B46012202212046CDF8009000F047
:1024800030FE08B103260FE04A463946204600F0E8
:1024900018FE18B101262020606505E0A06818B973
:1024A0002068C16880680090012084F851000020F5
:1024B00084F85000304631E74FF0E02104280869E5
:1024C00003D020F004000861704740F00400FAE7F0
:1024D000704710B5401EB0F1807F01D3012010BDC0
:1024E0004FF0E02460610F21601700F0D9FD00205B
:1024F000A06107202061002010BD10B5FFF7E8FFA4
:1025000010BD7047704730B590F83C20012A20D0AC
:10251000012280F83C20022380F83D3003685C688B
:1025200024F070045C6003685C680D682C435C6098
:1025300003689C6824F080049C6003689C68496878
:102540000C439C6080F83D20002180F83C10084638
:1025500030BD022030BD10B5040003D094F83D001A
:1025600010B107E0012010BD002084F83C00204697
:1025700000F00CF8022084F83D00211D206801F0D5
:10258000EBF8012084F83D00002010BD08B500687C
:10259000B0F1804F12D10A48C16941F00101C16117
:1025A000C069002200F00100009011461C20FFF7D6
:1025B00043FABDE808401C20FFF733BA08BD00000D
:1025C00000100240022180F83D1001680A6842F0C4
:1025D00001020A60012180F83D1000207047016867
:1025E000CA6842F00102CA600068016841F0010156
:1025F00001600020704770B5044690F83C00012847
:1026000017D0012584F83C50022084F83D00206852
:10261000826822F0770222F47F42826008685028A4
:1026200037D00DDC202859D005DC88B3102841D1E3
:1026300051E0022070BD302853D040283AD13FE00D
:1026400060282ED070280BD0B0F5805F03D0B0F595
:10265000005F2FD110E02068816821F0070115E0AC
:10266000CB68D1E90121206801F0ACF821688868C5
:1026700040F0770088601DE0CB68D1E90121206837
:1026800001F0A0F82068816841F48041816011E088
:102690001EE0CA684968206801F0A6F85021206849
:1026A00006E0CA684968206801F0AFF86021206838
:1026B00001F092F884F83D50002084F83C0070BD91
:1026C000CA684968206801F08FF840212068EFE768
:1026D00000212068ECE710212068E9E7202120682C
:1026E000E6E730212068E3E7704770B504460068EC
:1026F00001694FF00005C943890715D4C168C94372
:10270000890711D4E91E01610120207720688069C2
:102710008007204602D0FFF7E7FF04E000F098F8BA
:10272000204600F096F8257720680169C9434907DB
:1027300017D4C168C943490713D46FF0040101617C
:10274000022020772068806910F4407F204602D064
:10275000FFF7CAFF04E000F07BF8204600F079F8AC
:10276000257720680169C943090716D4C168C943A0
:10277000090712D46FF00801016104202077206856
:10278000C0698007204602D0FFF7AEFF04E000F0EA
:102790005FF8204600F05DF8257720680169C9439D
:1027A000C90617D4C168C943C90613D46FF0100114
:1027B0000161082020772068C06910F4407F20461E
:1027C00002D0FFF791FF04E000F042F8204600F04D
:1027D00040F8257720680169C943C90708D1C16855
:1027E000C943C90704D1891E0161204600F032F8AF
:1027F00020680169C943090609D4C168C9430906AB
:1028000005D46FF0800101612046FFF77AFE206851
:102810000169C943490609D4C168C943490605D4B9
:102820006FF040010161204600F015F82068016951
:10283000C94389060BD4C168C943890607D46FF020
:10284000200101612046BDE87040FFF75BBE70BD0E
:1028500070477047704770477047000070B5026856
:1028600004461068D168536910F00F0F51D003F07F
:10287000010501F4907635435DD0C20705D0CA0545
:1028800003D5E26B42F00102E263420705D5DA07A5
:1028900003D0E26B42F00202E263820705D5DA0759
:1028A00003D0E26B42F00402E263020705D5DA07C7
:1028B00003D0E26B42F00802E263E26B002A34D0FC
:1028C000800604D5880602D5204600F0C6FF2068A1
:1028D0004069E16BC0F3801001F00801014320461C
:1028E00024D000F0ACFF2068416949061AD541693F
:1028F00021F040014161606BA0B11B494163606BF5
:10290000FEF702FB002810D0606B416BBDE8704001
:10291000084783060FD58B060DD52046BDE87040CD
:1029200000F09BBF2046FFF797FF70BDFFF794FFB5
:102930000020E06370BD030606D50B0604D52046D3
:10294000BDE8704001F08CB84006F3D54806F1D5DB
:10295000D168204621F04001D160202184F839104F
:1029600000F098F870BD00002F38000810B500681E
:10297000164986B0884226D11548816941F48041C4
:1029800081618069134C00F4804004904FF4007022
:102990000090022001900320039069462046FEF734
:1029A00025FC20150090002001900120029069462E
:1029B0002046FEF71BFC002211462520FFF73CF8BD
:1029C0002520FFF72EF806B010BD000000380140AA
:1029D000001002400008014070472DE9F84304460A
:1029E00090F839001F4616460D46202850D1A5B153
:1029F0009EB194F8380001284AD0012084F83800AC
:102A00004FF00008C4F83C80212084F83900FEF71C
:102A1000D9FCA6848146E68426E00120BDE8F8833F
:102A2000E08C401EE084A0684B46B0F5805F4FF01C
:102A300000024FF080012046009703D001F041F8DA
:102A4000E8B90DE001F03DF8C8B928882168C0F365
:102A500008004860206908B16D1C05E0AD1C03E06A
:102A6000216815F8010B4860E08C0028D8D14B464E
:102A7000002240212046009701F023F808B10320EE
:102A8000CCE7202084F8390084F838800020C5E79E
:102A90000220C3E77047FEE701684A69D243520546
:102AA0000CD46FF480624A6104210164002140F873
:102AB000301F2022427301730120704700207047AD
:102AC0002DE9F84F0446C06A1E4692460D4621681D
:102AD0000A6842F480620A60042807D0012805D001
:102AE00010F5803F02D0206B112804D120680168C6
:102AF00041F4807101604FF00118534600224146B5
:102B00002046009600F0BDF8B8BB206908F1010925
:102B1000B0F5804F12D00620216800EAD51747F0A3
:102B2000F00008613346524608F10701204600F0E4
:102B3000D9F838B1206C04282FD01EE0E8B240F05C
:102B400001001FE02168E8B2086133465246494659
:102B5000204600F0C7F80028ECD12068416981695F
:102B60000091016841F480710160534600224146A2
:102B70002046009600F085F810B10320BDE8F88FDC
:102B800047F0F10021680861334652464946204625
:102B900000F0A8F80028CDD1F0E70120EEE7000012
:102BA000F8B50446C06A1E460D461746042807D0ED
:102BB000012805D010F5803F02D0206B122804D1E7
:102BC0002068016841F480710160134600224FF0D3
:102BD00001112046009600F054F8A0B92069B0F524
:102BE000804F12D00620216800EAD51040F0F00096
:102BF000086133463A460E49204600F073F838B172
:102C0000206C042811D00320F8BD05F0FE0000E080
:102C1000E8B221680861064933463A46891F2046D2
:102C200000F060F80028EBD1F8BD0120F8BD0000ED
:102C30000800010070B516460D4604461AE020460D
:102C4000FFF72AFF08B1012070BD681C12D025B122
:102C5000FEF7B8FB801BA8420CD954F8400F40F097
:102C6000200044F8100900202060202161732073A7
:102C7000032070BD20684069C0434007DFD40020B6
:102C800070BD2DE9F0471E4690460D460446C1F33F
:102C90000747DDF8209012E0701C10D02EB1FEF72F
:102CA00091FBA0EB0900B04209D9002044F8300F95
:102CB00020216173A07320730320BDE8F087206892
:102CC000012F0AD0806925EA00000004000C06D01C
:102CD00000214145E0D00020EFE74069F3E7012102
:102CE000F7E700002DE9F0479A4691460D46044665
:102CF00000264FF02008C1F307472AE0206840690A
:102D0000C043400512D42068016841F4007101609D
:102D100021686FF48060486104202064266384F891
:102D20003D8084F83C600120BDE8F087B9F1FF3FA9
:102D30000FD0B9F1000F05D0FEF744FBA0EB0A015C
:102D4000494506D944F8306F84F80D802673032076
:102D5000EAE72068012F07D0D0F8180025EA000024
:102D60000004000CE0D0C9E74069F7E72DE9F04125
:102D7000002590460E460446202721E04069C043C6
:102D8000C0060CD421686FF01000486125642563EB
:102D900084F83D7084F83C500120BDE8F0812EB1EC
:102DA000FEF710FBA0EB0800B04209D954F8400F21
:102DB00040F0200044F80409677025700320ECE718
:102DC00020684169C9434906D8D40020E5E770B5B9
:102DD00016460D4604461AE02046FFF75DFE08B190
:102DE000012070BD681C12D025B1FEF7EBFA801BE4
:102DF000A8420CD954F8400F40F0200044F81009C4
:102E000000202060202161732073032070BD2068A2
:102E10004069C0430006DFD4002070BD3EB51948AC
:102E20001749002401608915C0E902144461032593
:102E300005614FF460214460C161FDF795FE00B16A
:102E4000FEE7009401240620CDE9014069460D48C3
:102E5000FDF72EFD00B1FEE7009402246946094803
:102E60000194FDF725FD00B1FEE769460548CDE96F
:102E70000045FDF71DFD002800D0FEE73EBD000027
:102E800000240140600000202DE9F0473F4886B053
:102E9000816941F010018161816901F010010491A3
:102EA000816941F020018161816901F02001049173
:102EB000816941F004018161816901F0040104919B
:102EC000816941F0080181618069012200F00800F8
:102ED000DFF8BC805503049029464046FEF76DFAA2
:102EE000DFF8B090012210214846FEF766FADFF8BD
:102EF000A8A0012202215046FEF75FFA6C110022C1
:102F000021464846FEF759FA0122970339465046B2
:102F1000FEF753FA0094012401940294694648464E
:102F20000394FEF763F9CDE9005400250226CDE9AC
:102F3000025669464046FEF759F910208DE87100A7
:102F400069464846FEF752F9CDE9004569465046C4
:102F50000295FEF74BF90420CDE90005694602947D
:102F60005046FEF743F9CDE90064CDE902566946C3
:102F70005046FEF73BF901AA009782E870006946C7
:102F80005046FEF733F906B0BDE8F0870010024066
:102F90000010014000080140000C01400B4810B532
:102FA000094901600A49416000214FF48042816073
:102FB000C0E9031241618161C1610162FEF708FA53
:102FC000002800D0FEE710BD005800406801002036
:102FD000A08601000E4810B50C4901604FF48271C3
:102FE000416000218160C1604FF400720161C0E95D
:102FF00005120822C0E90721416281620A21C162EB
:10300000FFF74DF8002800D0FEE710BD003001406A
:103010009000002010B5134886B04FF08041016049
:1030200047210024C0E901144FF6FE71C0E90314E2
:103030008461FFF790FA00B1FEE74FF480500090F2
:1030400069460848FFF7D7FA00B1FEE7049404A9DF
:1030500004480594FFF757FA002800D0FEE706B0B1
:1030600010BD0000E80000200B4810B509490160C0
:103070004FF4E1314160002181600C22C160C0E960
:10308000041281610A46C161FEF78AFC002800D063
:10309000FEE710BD0038014028010020FEE7704720
:1030A0000907090E002806DA00F00F0000F1E02001
:1030B00080F8141D704700F1E02080F8001470477C
:1030C000704738B50B46009204460022802100F07C
:1030D00008F8002804D0606D40F0200060650320EF
:1030E00038BD2DE9F0411D4617460E460446DDF871
:1030F000188035E0681C33D02DB1FEF763F9A0EBE2
:103100000800A8422CD32068416821F0E00141600A
:103110006068B0F5827F0BD1A068B0F5004F02D097
:10312000B0F5806F04D12068016821F04001016092
:10313000A06AB0F5005F0AD1206801684DF6FF7201
:10314000114001602068016841F4005101600120D4
:1031500084F85100002084F850000320BDE8F0817D
:103160002068806836EA000004D00020B842C1D14F
:103170000020F3E70120F9E7704770B515460E46C9
:103180000446017200F0DCF984224D21204600F053
:1031900027F9FF222421204600F022F901224021B4
:1031A000204600F01DF93F221121204600F018F9B9
:1031B000204600F042F932462221204600F010F964
:1031C0000F21204600F0FDF802460D21204600F0B8
:1031D00007F98D220121204600F002F9002084F831
:1031E0000A011821204600F0ECF8400703D503201F
:1031F0006072012070BD6D1E03D0012000F0ADF99A
:10320000EFE7206800F0B5F9204600F099F90020BA
:1032100070BD70B516460C460546017200F090F977
:1032200087224D21284600F0DBF800222421284681
:1032300000F0D6F841224021284600F0D1F8284677
:1032400000F0FBF8F7221121284600F0C9F82246C9
:103250002221284600F0C4F80E21284600F0B1F8DB
:1032600002460D21284600F0BBF82221284600F036
:10327000A8F8A04203D102206872012070BD761E1A
:10328000F3D1286800F075F9284600F059F90020BC
:1032900070BD70B50446006800F061F908B304F130
:1032A0000A004FF480710646FCF765FF10212046A6
:1032B00000F087F802460D21204600F091F8A07931
:1032C00090B11321204600F07CF805462B4632468B
:1032D0000021204600F035F884F80A51204600F01D
:1032E000ACF894F80A0170BD257AEFE770B51D4679
:1032F00013460A460446002100F042F88B220121C1
:10330000204600F06DF8206800F029F958B112212C
:10331000204600F056F8204600F08FF8204600F0D6
:10332000A3F9012070BD6D1E03D0012000F015F936
:10333000E9E7206800F01DF9204600F001F90020BF
:1033400070BD2DE9F0411E4617460C460546012B7F
:1033500014D90021286800F052F92146286800F0AD
:1033600020F9002404E000F02EF93855641CE4B282
:103370002868B442F7D3012100F041F9BDE8F0819B
:103380002DE9F0411E4617460C460546012B16D97D
:103390000021286800F033F944F08001286800F02B
:1033A00000F9002405E0395D286800F0FAF8641C93
:1033B000E4B2B442F7D30121286800F020F9BDE857
:1033C000F08170B50446006800F0EBF8206800F06A
:1033D000FAF805460121206800F011F9284670BD71
:1033E00070B50D46044616460068002100F007F946
:1033F00045F08001206800F0D4F83146206800F0E4
:10340000D0F80121206800F0FAF870BD2DE9F047EE
:103410000446DDE908891D4616460F46006800F09F
:10342000F8F827716671A57184F8078084F8089010
:103430002046BDE8F04700F083B8FF221221FFF7D5
:10344000CFBF00002DE9F0411C4615460F468046CF
:10345000069E00F000F90F2000F07FF8404600F0D3
:1034600078F8364907EB4700421803230621404607
:10347000FFF786FF31480921C01C425D4046FFF737
:10348000AFFF0B2211464046FFF7AAFF23220C2173
:103490004046FFF7A5FF294D0727ED1DE81D295DD3
:1034A000805D06292BD0022101EB0010C2B21D2144
:1034B0004046FFF795FF285D1E2107EB0010C2B2C2
:1034C0004046FFF78DFFFF221F214046FFF788FF90
:1034D000002220214046FFF783FF0C222121404695
:1034E000FFF77EFF012241214046FFF779FF0021CF
:1034F000404688F80A11BDE8F04100F0B5B8032154
:1035000001EB0010C2B21D214046FFF769FF285DA4
:103510001E2107EB0010C2B24046FFF761FF3121C8
:103520004046FFF74EFF00F0F80040F00502312161
:103530004046FFF755FF0C223721C1E7BC41000888
:1035400008B5C1790091837942790179FFF77AFF53
:1035500008BD88220121FFF743BFFDF735BE10B536
:103560000189C06889B2FDF71FFF012800D0002043
:1035700010BD10B50446012100F041F8208800225A
:1035800081B26068FDF719FF0120FFF7E6FF208890
:10359000012281B26068FDF710FF6420FFF7DDFFB4
:1035A00010BD13B50446002100F029F84FF47A73DA
:1035B000012201A9A069FEF7DFFDA069FEF76CFDFD
:1035C0000128FAD11CBD3EB5044600208DF8080044
:1035D0008DF804000146204600F011F84FF47A708F
:1035E0000090012301AA02A9A069FEF779FEA06953
:1035F000FEF752FD0128FAD19DF804003EBD0129D5
:1036000005D00022018A406989B2FDF7D6BE0122A9
:10361000F8E710B504460121FFF7F1FF20880122E9
:1036200081B26068BDE81040FDF7C7BE70B50546C1
:1036300090F80A0114460E46A04200D004462246E5
:1036400005F10A013046FCF77DFD0020305585F874
:103650000A01204670BD10B5044608220121FFF77B
:10366000BFFE0020607210BD10B504460922012182
:10367000FFF7B6FE0120607210BD10B5FEF70EF91F
:10368000BDE81040FEF739BF30B593B00121080402
:10369000CDE900100025029502240491CDE90740F0
:1036A0004FF4E01009906846FEF774FB00B1FEE7A6
:1036B0000AA90F2081E831004FF48060CDE90D05A3
:1036C00002210AA8FEF760FA00B1FEE74FF40040BD
:1036D00011900F940FA8FEF7E1F900B1FEE7FEF795
:1036E000FDFA4FF47A71B0FBF1F0FEF7F2FE042020
:1036F000FEF7E2FE00221146501EFEF79DF913B0C0
:1037000030BD00000D48016841F0010101604168D1
:103710000B4A1140416001680A4A1140016001688A
:1037200021F480210160416821F4FE0141604FF4E1
:103730001F0181600449C003086070470010024007
:103740000000FFF8FFFFF6FE08ED00E00148FEF77D
:10375000CCBF0000E8000020F0B50268164B174C03
:10376000174D4FF08047984205D0B84203D0A04291
:1037700001D0A84203D122F070064A683243984231
:1037800005D0B84203D0A04201D0A84203D122F410
:103790004074CA68224322F080044A6922430260CE
:1037A0008A68C2620A688262984201D1096901632B
:1037B00001214161F0BD0000002C014000040040E7
:1037C0000008004010B5846842EA032224F47F44D4
:1037D0000A432243826010BD826822F070020A43CD
:1037E00042F007018160704710B5036A046A24F053
:1037F00001040462846924F0F00444EA021423F012
:103800000A020A438461026210BD10B5036A23F004
:10381000100303628369046A23F4704343EA0232AB
:1038200024F0A00343EA01118261016210BD10B5CA
:10383000406A0021C185C184FFF70EF810BD016800
:10384000CA6822F49072CA6001684A6922F00102D3
:103850004A61202180F83A10704710B590F83A106C
:10386000222901D0022010BD8168B1F5805F11D0FE
:103870000169002901681FD0496801F07F03816A4E
:103880004A1C82620B70C18D491E0904090CC18556
:1038900018D02BE00269816A002A0268526805D0BC
:1038A000D2B20A80816A491C8162ECE7C2F3080245
:1038B0000A80816A891CF7E74A68816A4B1C836227
:1038C0000A70E0E70168CA6822F02002CA60016855
:1038D000CA6822F48072CA6001684A6922F0010253
:1038E0004A61202180F83A10FFF776F8002010BDD9
:1038F0002DE9F041044600680169E26821F4405175
:10390000114301612169A068084361690843216886
:10391000CA6841F20C639A430243CA602068416955
:10392000A26921F44071114341614C49206864252A
:10393000322688423CD1FEF7E7F900EBC00101EBEB
:10394000001061688900B0FBF1F7FEF7DDF900EBCC
:10395000C00101EB00106168B0468900B0FBF1F0D6
:10396000B0FBF5F06FF01801484307EB800106EB60
:103970000110B0FBF5F000F0F006FEF7C5F900EB22
:10398000C00101EB001061688900B0FBF1F0B0FBF1
:10399000F5F006EB0016FEF7B7F900EBC00101EBFE
:1039A000001061688900B0FBF1F7FEF7ADF93BE06C
:1039B000FEF79AF900EBC00101EB00106168890085
:1039C000B0FBF1F7FEF790F900EBC00101EB00103E
:1039D0006168B0468900B0FBF1F0B0FBF5F06FF024
:1039E0001801484307EB800106EB0110B0FBF5F02E
:1039F00000F0F006FEF778F900EBC00101EB0010D3
:103A000061688900B0FBF1F0B0FBF5F006EB001641
:103A1000FEF76AF900EBC00101EB00106168890054
:103A2000B0FBF1F7FEF760F900EBC00101EB00100D
:103A300061688900B0FBF1F0B0FBF5F06FF01801A0
:103A4000484307EB800108EB0110B0FBF5F021685B
:103A500000F00F0030448860BDE8F081003801407C
:103A600090F83910212901D0022070478168B1F502
:103A7000805F016A0BD04A1C0262026809785160BB
:103A8000C18C491E0904090CC1840ED017E00988B5
:103A90000268C1F30801516001690029016A02D07E
:103AA000491C0162ECE7891CFBE70168CA6822F047
:103AB0008002CA600068C16841F04001C160002016
:103AC00070472DE9F041984617460E460446069D7C
:103AD0001DE0681C1BD02DB1FDF774FCA0EB0800A5
:103AE000A84214D92068C16821F4D071C16020684F
:103AF000416921F001014161202084F8390084F8F6
:103B00003A00002084F838000320BDE8F0812068E6
:103B1000006836EA000004D00020B842D9D0002066
:103B2000F3E70120F9E700000148FEF797BE000027
:103B300028010020FEE7FEE70FB4054B10B503A9EE
:103B4000044A029800F02CF810BC5DF814FB000049
:103B5000ED3E00085C0000200FB4084B10B504A92E
:103B600002AA039800F01CF8044602A9002000F005
:103B7000B8F9204610BC5DF814FB0000E33E0008D5
:103B800002E008C8121F08C1002AFAD17047704726
:103B9000002001E001C1121F002AFBD17047000084
:103BA0002DE9FF4F8BB088460546002606E0252804
:103BB0000BD0DDE90D1290476D1C761C287800288B
:103BC000F5D10FB03046BDE8F08F0024A146A246E3
:103BD0000122AE4900E0044315F8013F203B02FA00
:103BE00003F00842F7D128782A2810D06FF02F026E
:103BF0002878A0F13001092915D809EB890102EBD9
:103C0000410144F0020400EB01096D1CF0E758F893
:103C1000041B5FEA010903D544F40054C9F100090B
:103C200044F002046D1C28782E2817D115F8010FD6
:103C300044F004042A280ED06FF02F022878A0F157
:103C4000300109290AD80AEB8A0102EB410100EB95
:103C5000010A6D1CF2E758F804AB6D1C28786C283B
:103C60000FD006DC4C2817D068280DD06A2814D154
:103C700004E0742810D07A280FD10DE044F4001429
:103C80000AE044F4801401E044F44014697881426D
:103C900002D104F580146D1C6D1C2878692865D04C
:103CA00006DC00288DD0632827D0642806D15DE08B
:103CB0006E2808D073282AD0752877D0DDE90D1238
:103CC0009047761CE0E0C4F30250022809D0032894
:103CD0000DD0D8F8001004280DD00E6008F10408AB
:103CE000D2E0D8F80010F217C1E90062F6E7D8F880
:103CF00000100E80F2E70E70F0E718F8041B8DF844
:103D0000001000208DF80100EB46012003E058F878
:103D100004BB4FF0FF3061074FF0000701D40AE009
:103D20007F1C57450DDA8742FADB1BF80710002984
:103D3000F6D106E07F1C8742FCDB1BF80710002948
:103D4000F8D1DDE90D23A9EB07008146214600F0FB
:103D5000B1F83044C61904E0DDE90D121BF8010B7F
:103D600090477F1EF8D22146484688E058F8040B59
:103D7000C4F302514FF00A0B032900D100B2042909
:103D800000D140B2002802DA40422D2102E0210594
:103D900005D52B218DF82410012104E006E0E10770
:103DA00010D02021F6E708AF089113E058F8040B73
:103DB000C4F302514FF00A0B032900D180B2042949
:103DC00000D1C0B20021EEE75946FCF7E6FB3031E6
:103DD00007F8011D0028F7D1ADEB070000F1200B1B
:103DE000600702D524F4803401E04FF0010ADA457F
:103DF00002DDAAEB0B0000E00020824600EB0B0185
:103E000008980144A9EB01000A90E00306D4DDE91B
:103E10000D2321460A9800F04DF806444FF00009A2
:103E200008E009A911F80900DDE90D12904709F130
:103E30000109761C08998945F3DBE0030CD5DDE91F
:103E40000D2321460A9800F035F8064404E0DDE928
:103E50000D1230209047761CBAF10001AAF1010A38
:103E6000F5DC05E0DDE90D1217F8010B9047761C33
:103E7000BBF10001ABF1010BF4DC0A982146DDE94E
:103E80000D2300F005F806446D1C97E60928010093
:103E90002DE9F041044600251E461746880404D447
:103EA00005E039462020B0476D1C641EF9D5284630
:103EB000BDE8F0812DE9F041044600251E469046FC
:103EC000C80301D5302700E02027880404D505E089
:103ED00041463846B0476D1C641EF9D52846BDE8FA
:103EE000F0810A68531C0B601070704713B564238F
:103EF000012269460248FEF770FD00981CBD0000D3
:103F0000280100201CB5FDF7D1FCFFF7BDFBFEF733
:103F1000BBFF9148416941F00101416140690022C4
:103F200000F00100009011460B20FDF785FD0B20ED
:103F3000FDF777FDFFF74EF8FEF770FFFFF76AF821
:103F4000FFF792F8FFF72AF8032284498448FCF728
:103F5000EFFE8348FCF772FF81488830FEF73FFB95
:103F60007F488830FEF72EFB7F48804ADFF8F4B1A7
:103F700042611022C0E903B20125C0E901B5022166
:103F80000160A0F5E271816100F11C01086078A078
:103F9000FFF7D2FD0A210320CDE900017248022378
:103FA000012200211C30FFF731FA78A0FFF7C4FD91
:103FB0006A4C4FF4FA6A443C524620694FF01001B3
:103FC0000128694800F11C0034D0FFF7D6F800BF83
:103FD0004FF06408E062CDF8008060785F4A4100ED
:103FE000614846460123423AEC38FDF799FBB4207C
:103FF000FDF7EAF800966078584A05EB40015A4808
:1040000002233C3AEC38FDF783FADFF85091A9F12E
:104010003C09B9F8000040BA6081FCF769FA4FF03A
:104020003332624BFCF7ECF9FCF79BFA60632069D2
:1040300018B115E0FFF7EDF8CAE74B481C30FFF761
:1040400028F9E06200280BDD474902468C3901F16E
:10405000A800FFF7EBFA444F8C3F3878332864D040
:1040600020690128E3D1CDF8008060783B4A410007
:104070003D4846460123423AEC38FDF751FBB42057
:10408000FDF7A2F800966078344A05EB4001364807
:1040900002233C3AEC38FDF73BFAB9F8000040BA8D
:1040A0006081FCF725FA4FF03332404BFCF7A8F95A
:1040B000FCF757FA3E4F4FF40056606331463846DE
:1040C000FDF777F96420FDF77FF831463846FDF7B4
:1040D00070F9606BFCF732FACDE9000122482278D2
:1040E00034A14C38FFF738FDC1B220631E48564654
:1040F00052461C30FFF78DF80027E0621A4994F809
:1041000030204C39334601F16800FFF7EFF87F1C8F
:10411000E062022FF2DB00202061134832461021BA
:104120001C30FFF72AF8E06281E70F4E78780C3EEA
:10413000317888420ED0312802D0302802D007E0F2
:10414000002200E001224FF480415846FDF735F986
:1041500078783070256186E7001002404400002026
:1041600060000020000C01405402002000080140C3
:10417000436F6E6669677572696E67204C6F526136
:10418000206D6F64756C650D0A000000446F6E65EC
:1041900020636F6E6669677572696E67204C6F5237
:1041A000614D6F64756C650D0A0000003333F33F99
:1041B0000010014025642564000000006C8000FFB1
:1041C000FCF9F6060708090A0B0C000102030405B6
:1041D00006070809000000000000000001020304B7
:1041E0000607080900000000010203040C42000851
:1041F0000000002060000000803B00086C420008C6
:104200006000002060070000903B000803231000BE
:10421000000000000000000000000000000000009E
:10422000000000000000000000000000000000008E
:10423000000000000000000000000000000000007E
:10424000000000000000000000000000000000006E
:10425000000000000000000001000000100000004D
:0C4260000000000000A24A040000000062
:04000005080000ED02
:00000001FF
